Component: ARM Compiler 5.06 update 5 (build 528) Tool: armlink [4d35e2]

==============================================================================

Section Cross References

    startup_stm32g431xx.o(RESET) refers to startup_stm32g431xx.o(STACK) for __initial_sp
    startup_stm32g431xx.o(RESET) refers to startup_stm32g431xx.o(.text) for Reset_Handler
    startup_stm32g431xx.o(RESET) refers to stm32g4xx_it.o(i.NMI_Handler) for NMI_Handler
    startup_stm32g431xx.o(RESET) refers to stm32g4xx_it.o(i.HardFault_Handler) for HardFault_Handler
    startup_stm32g431xx.o(RESET) refers to stm32g4xx_it.o(i.MemManage_Handler) for MemManage_Handler
    startup_stm32g431xx.o(RESET) refers to stm32g4xx_it.o(i.BusFault_Handler) for BusFault_Handler
    startup_stm32g431xx.o(RESET) refers to stm32g4xx_it.o(i.UsageFault_Handler) for UsageFault_Handler
    startup_stm32g431xx.o(RESET) refers to stm32g4xx_it.o(i.SVC_Handler) for SVC_Handler
    startup_stm32g431xx.o(RESET) refers to stm32g4xx_it.o(i.DebugMon_Handler) for DebugMon_Handler
    startup_stm32g431xx.o(RESET) refers to stm32g4xx_it.o(i.PendSV_Handler) for PendSV_Handler
    startup_stm32g431xx.o(RESET) refers to stm32g4xx_it.o(i.SysTick_Handler) for SysTick_Handler
    startup_stm32g431xx.o(RESET) refers to stm32g4xx_it.o(i.DMA1_Channel1_IRQHandler) for DMA1_Channel1_IRQHandler
    startup_stm32g431xx.o(RESET) refers to stm32g4xx_it.o(i.USART1_IRQHandler) for USART1_IRQHandler
    startup_stm32g431xx.o(.text) refers to system_stm32g4xx.o(i.SystemInit) for SystemInit
    startup_stm32g431xx.o(.text) refers to entry.o(.ARM.Collect$$$$00000000) for __main
    main.o(i.SystemClock_Config) refers to memseta.o(.text) for __aeabi_memclr4
    main.o(i.SystemClock_Config) refers to stm32g4xx_hal_pwr_ex.o(i.HAL_PWREx_ControlVoltageScaling) for HAL_PWREx_ControlVoltageScaling
    main.o(i.SystemClock_Config) refers to stm32g4xx_hal_rcc.o(i.HAL_RCC_OscConfig) for HAL_RCC_OscConfig
==============================================================================

Removing Unused input sections from the image.

    Removing startup_stm32g431xx.o(HEAP), (512 bytes).
    Removing main.o(.rev16_text), (4 bytes).
    Removing main.o(.revsh_text), (4 bytes).
    Removing main.o(.rrx_text), (6 bytes).
    Removing gpio.o(.rev16_text), (4 bytes).
    Removing gpio.o(.revsh_text), (4 bytes).
    Removing gpio.o(.rrx_text), (6 bytes).
    Removing dma.o(.rev16_text), (4 bytes).
    Removing dma.o(.revsh_text), (4 bytes).
    Removing dma.o(.rrx_text), (6 bytes).
    Removing tim.o(.rev16_text), (4 bytes).
    Removing tim.o(.revsh_text), (4 bytes).
    Removing tim.o(.rrx_text), (6 bytes).
    Removing tim.o(i.HAL_TIM_Base_MspDeInit), (28 bytes).
    Removing usart.o(.rev16_text), (4 bytes).
    Removing usart.o(.revsh_text), (4 bytes).
    Removing usart.o(.rrx_text), (6 bytes).
    Removing usart.o(i.HAL_UART_MspDeInit), (60 bytes).
==============================================================================

Image Symbol Table

    Local Symbols

    Symbol Name                              Value     Ov Type        Size  Object(Section)

    ../Core/Src/dma.c                        0x00000000   Number         0  dma.o ABSOLUTE
    ../Core/Src/gpio.c                       0x00000000   Number         0  gpio.o ABSOLUTE
    ../Core/Src/main.c                       0x00000000   Number         0  main.o ABSOLUTE
    ../Core/Src/stm32g4xx_hal_msp.c          0x00000000   Number         0  stm32g4xx_hal_msp.o ABSOLUTE
    ../Core/Src/stm32g4xx_it.c               0x00000000   Number         0  stm32g4xx_it.o ABSOLUTE
    ../Core/Src/system_stm32g4xx.c           0x00000000   Number         0  system_stm32g4xx.o ABSOLUTE
    ../Core/Src/tim.c                        0x00000000   Number         0  tim.o ABSOLUTE
    ../Core/Src/usart.c                      0x00000000   Number         0  usart.o ABSOLUTE
    ../Drivers/STM32G4xx_HAL_Driver/Src/stm32g4xx_hal.c 0x00000000   Number         0  stm32g4xx_hal.o ABSOLUTE
    ../Drivers/STM32G4xx_HAL_Driver/Src/stm32g4xx_hal_cortex.c 0x00000000   Number         0  stm32g4xx_hal_cortex.o ABSOLUTE
    ../Drivers/STM32G4xx_HAL_Driver/Src/stm32g4xx_hal_dma.c 0x00000000   Number         0  stm32g4xx_hal_dma.o ABSOLUTE
    ../Drivers/STM32G4xx_HAL_Driver/Src/stm32g4xx_hal_dma_ex.c 0x00000000   Number         0  stm32g4xx_hal_dma_ex.o ABSOLUTE
    ../Drivers/STM32G4xx_HAL_Driver/Src/stm32g4xx_hal_exti.c 0x00000000   Number         0  stm32g4xx_hal_exti.o ABSOLUTE
    ../Drivers/STM32G4xx_HAL_Driver/Src/stm32g4xx_hal_flash.c 0x00000000   Number         0  stm32g4xx_hal_flash.o ABSOLUTE
    ../Drivers/STM32G4xx_HAL_Driver/Src/stm32g4xx_hal_flash_ex.c 0x00000000   Number         0  stm32g4xx_hal_flash_ex.o ABSOLUTE
    ../Drivers/STM32G4xx_HAL_Driver/Src/stm32g4xx_hal_flash_ramfunc.c 0x00000000   Number         0  stm32g4xx_hal_flash_ramfunc.o ABSOLUTE
    ../Drivers/STM32G4xx_HAL_Driver/Src/stm32g4xx_hal_gpio.c 0x00000000   Number         0  stm32g4xx_hal_gpio.o ABSOLUTE
    ../Drivers/STM32G4xx_HAL_Driver/Src/stm32g4xx_hal_pwr.c 0x00000000   Number         0  stm32g4xx_hal_pwr.o ABSOLUTE
    ../Drivers/STM32G4xx_HAL_Driver/Src/stm32g4xx_hal_pwr_ex.c 0x00000000   Number         0  stm32g4xx_hal_pwr_ex.o ABSOLUTE
    ../Drivers/STM32G4xx_HAL_Driver/Src/stm32g4xx_hal_rcc.c 0x00000000   Number         0  stm32g4xx_hal_rcc.o ABSOLUTE
    ../Drivers/STM32G4xx_HAL_Driver/Src/stm32g4xx_hal_rcc_ex.c 0x00000000   Number         0  stm32g4xx_hal_rcc_ex.o ABSOLUTE
    ../Drivers/STM32G4xx_HAL_Driver/Src/stm32g4xx_hal_tim.c 0x00000000   Number         0  stm32g4xx_hal_tim.o ABSOLUTE
    ../Drivers/STM32G4xx_HAL_Driver/Src/stm32g4xx_hal_tim_ex.c 0x00000000   Number         0  stm32g4xx_hal_tim_ex.o ABSOLUTE
    ../Drivers/STM32G4xx_HAL_Driver/Src/stm32g4xx_hal_uart.c 0x00000000   Number         0  stm32g4xx_hal_uart.o ABSOLUTE
    ../Drivers/STM32G4xx_HAL_Driver/Src/stm32g4xx_hal_uart_ex.c 0x00000000   Number         0  stm32g4xx_hal_uart_ex.o ABSOLUTE
    ../clib/microlib/division.c              0x00000000   Number         0  uidiv.o ABSOLUTE
    ../clib/microlib/division.c              0x00000000   Number         0  uldiv.o ABSOLUTE
    ../clib/microlib/init/entry.s            0x00000000   Number         0  entry5.o ABSOLUTE
    ../clib/microlib/init/entry.s            0x00000000   Number         0  entry7a.o ABSOLUTE
    ../clib/microlib/init/entry.s            0x00000000   Number         0  entry9a.o ABSOLUTE
    ../clib/microlib/init/entry.s            0x00000000   Number         0  entry8a.o ABSOLUTE
    ../clib/microlib/init/entry.s            0x00000000   Number         0  entry8b.o ABSOLUTE
    ../clib/microlib/init/entry.s            0x00000000   Number         0  entry7b.o ABSOLUTE
    ../clib/microlib/init/entry.s            0x00000000   Number         0  entry11b.o ABSOLUTE
    ../clib/microlib/init/entry.s            0x00000000   Number         0  entry11a.o ABSOLUTE
    ../clib/microlib/init/entry.s            0x00000000   Number         0  entry.o ABSOLUTE
    ../clib/microlib/init/entry.s            0x00000000   Number         0  entry10b.o ABSOLUTE
    ../clib/microlib/init/entry.s            0x00000000   Number         0  entry10a.o ABSOLUTE
    ../clib/microlib/init/entry.s            0x00000000   Number         0  entry9b.o ABSOLUTE
    ../clib/microlib/init/entry.s            0x00000000   Number         0  entry2.o ABSOLUTE
    ../clib/microlib/longlong.c              0x00000000   Number         0  llushr.o ABSOLUTE
    ../clib/microlib/longlong.c              0x00000000   Number         0  llshl.o ABSOLUTE
    ../clib/microlib/longlong.c              0x00000000   Number         0  llsshr.o ABSOLUTE
    ../clib/microlib/printf/printf.c         0x00000000   Number         0  printfa.o ABSOLUTE
    ../clib/microlib/printf/printf.c         0x00000000   Number         0  printf8.o ABSOLUTE
    ../clib/microlib/printf/printf.c         0x00000000   Number         0  printfb.o ABSOLUTE
    ../clib/microlib/printf/printf.c         0x00000000   Number         0  printf0.o ABSOLUTE
    ../clib/microlib/printf/printf.c         0x00000000   Number         0  printf2.o ABSOLUTE
    ../clib/microlib/printf/printf.c         0x00000000   Number         0  printf3.o ABSOLUTE
    ../clib/microlib/printf/printf.c         0x00000000   Number         0  printf7.o ABSOLUTE
    ../clib/microlib/printf/printf.c         0x00000000   Number         0  printf4.o ABSOLUTE
    ../clib/microlib/printf/printf.c         0x00000000   Number         0  printf5.o ABSOLUTE
    ../clib/microlib/printf/printf.c         0x00000000   Number         0  printf6.o ABSOLUTE
    ../clib/microlib/printf/printf.c         0x00000000   Number         0  printf1.o ABSOLUTE
    ../clib/microlib/stdio/streams.c         0x00000000   Number         0  stdout.o ABSOLUTE
    ../clib/microlib/string/memset.c         0x00000000   Number         0  memseta.o ABSOLUTE
    ../clib/microlib/stubs.s                 0x00000000   Number         0  iusefp.o ABSOLUTE
    ../fplib/microlib/fpadd.c                0x00000000   Number         0  dadd.o ABSOLUTE
    ../fplib/microlib/fpdiv.c                0x00000000   Number         0  ddiv.o ABSOLUTE
    ../fplib/microlib/fpepilogue.c           0x00000000   Number         0  depilogue.o ABSOLUTE
    ../fplib/microlib/fpfix.c                0x00000000   Number         0  dfixul.o ABSOLUTE
    ../fplib/microlib/fpmul.c                0x00000000   Number         0  dmul.o ABSOLUTE
    ..\Core\Src\dma.c                        0x00000000   Number         0  dma.o ABSOLUTE
    ..\Core\Src\gpio.c                       0x00000000   Number         0  gpio.o ABSOLUTE
    ..\Core\Src\main.c                       0x00000000   Number         0  main.o ABSOLUTE
    ..\Core\Src\stm32g4xx_hal_msp.c          0x00000000   Number         0  stm32g4xx_hal_msp.o ABSOLUTE
    ..\Core\Src\stm32g4xx_it.c               0x00000000   Number         0  stm32g4xx_it.o ABSOLUTE
    ..\Core\Src\system_stm32g4xx.c           0x00000000   Number         0  system_stm32g4xx.o ABSOLUTE
    ..\Core\Src\tim.c                        0x00000000   Number         0  tim.o ABSOLUTE
    ..\Core\Src\usart.c                      0x00000000   Number         0  usart.o ABSOLUTE
    ..\Drivers\STM32G4xx_HAL_Driver\Src\stm32g4xx_hal.c 0x00000000   Number         0  stm32g4xx_hal.o ABSOLUTE
    ..\Drivers\STM32G4xx_HAL_Driver\Src\stm32g4xx_hal_cortex.c 0x00000000   Number         0  stm32g4xx_hal_cortex.o ABSOLUTE
    ..\Drivers\STM32G4xx_HAL_Driver\Src\stm32g4xx_hal_dma.c 0x00000000   Number         0  stm32g4xx_hal_dma.o ABSOLUTE
    ..\Drivers\STM32G4xx_HAL_Driver\Src\stm32g4xx_hal_dma_ex.c 0x00000000   Number         0  stm32g4xx_hal_dma_ex.o ABSOLUTE
    ..\Drivers\STM32G4xx_HAL_Driver\Src\stm32g4xx_hal_exti.c 0x00000000   Number         0  stm32g4xx_hal_exti.o ABSOLUTE
    ..\Drivers\STM32G4xx_HAL_Driver\Src\stm32g4xx_hal_flash.c 0x00000000   Number         0  stm32g4xx_hal_flash.o ABSOLUTE
    ..\Drivers\STM32G4xx_HAL_Driver\Src\stm32g4xx_hal_flash_ex.c 0x00000000   Number         0  stm32g4xx_hal_flash_ex.o ABSOLUTE
    ..\Drivers\STM32G4xx_HAL_Driver\Src\stm32g4xx_hal_flash_ramfunc.c 0x00000000   Number         0  stm32g4xx_hal_flash_ramfunc.o ABSOLUTE
    ..\Drivers\STM32G4xx_HAL_Driver\Src\stm32g4xx_hal_gpio.c 0x00000000   Number         0  stm32g4xx_hal_gpio.o ABSOLUTE
    ..\Drivers\STM32G4xx_HAL_Driver\Src\stm32g4xx_hal_pwr.c 0x00000000   Number         0  stm32g4xx_hal_pwr.o ABSOLUTE
    ..\Drivers\STM32G4xx_HAL_Driver\Src\stm32g4xx_hal_pwr_ex.c 0x00000000   Number         0  stm32g4xx_hal_pwr_ex.o ABSOLUTE
    ..\Drivers\STM32G4xx_HAL_Driver\Src\stm32g4xx_hal_rcc.c 0x00000000   Number         0  stm32g4xx_hal_rcc.o ABSOLUTE
    ..\Drivers\STM32G4xx_HAL_Driver\Src\stm32g4xx_hal_rcc_ex.c 0x00000000   Number         0  stm32g4xx_hal_rcc_ex.o ABSOLUTE
    ..\Drivers\STM32G4xx_HAL_Driver\Src\stm32g4xx_hal_tim.c 0x00000000   Number         0  stm32g4xx_hal_tim.o ABSOLUTE
    ..\Drivers\STM32G4xx_HAL_Driver\Src\stm32g4xx_hal_tim_ex.c 0x00000000   Number         0  stm32g4xx_hal_tim_ex.o ABSOLUTE
    ..\Drivers\STM32G4xx_HAL_Driver\Src\stm32g4xx_hal_uart.c 0x00000000   Number         0  stm32g4xx_hal_uart.o ABSOLUTE
    ..\Drivers\STM32G4xx_HAL_Driver\Src\stm32g4xx_hal_uart_ex.c 0x00000000   Number         0  stm32g4xx_hal_uart_ex.o ABSOLUTE
    My_APP\\key.c                            0x00000000   Number         0  key.o ABSOLUTE
    My_APP\\lcd.c                            0x00000000   Number         0  lcd.o ABSOLUTE
    My_APP\\lcd_app.c                        0x00000000   Number         0  lcd_app.o ABSOLUTE
    My_APP\\led.c                            0x00000000   Number         0  led.o ABSOLUTE
    My_APP\\scheduler.c                      0x00000000   Number         0  scheduler.o ABSOLUTE
    My_APP\\system.c                         0x00000000   Number         0  system.o ABSOLUTE
    My_APP\\tim_app.c                        0x00000000   Number         0  tim_app.o ABSOLUTE
    My_APP\\uart_app.c                       0x00000000   Number         0  uart_app.o ABSOLUTE
    My_APP\key.c                             0x00000000   Number         0  key.o ABSOLUTE
    My_APP\lcd.c                             0x00000000   Number         0  lcd.o ABSOLUTE
    My_APP\lcd_app.c                         0x00000000   Number         0  lcd_app.o ABSOLUTE
    My_APP\led.c                             0x00000000   Number         0  led.o ABSOLUTE
    My_APP\scheduler.c                       0x00000000   Number         0  scheduler.o ABSOLUTE
    My_APP\system.c                          0x00000000   Number         0  system.o ABSOLUTE
    My_APP\tim_app.c                         0x00000000   Number         0  tim_app.o ABSOLUTE
    My_APP\uart_app.c                        0x00000000   Number         0  uart_app.o ABSOLUTE
    cdrcmple.s                               0x00000000   Number         0  cdrcmple.o ABSOLUTE
    dc.s                                     0x00000000   Number         0  dc.o ABSOLUTE
    handlers.s                               0x00000000   Number         0  handlers.o ABSOLUTE
    init.s                                   0x00000000   Number         0  init.o ABSOLUTE
    startup_stm32g431xx.s                    0x00000000   Number         0  startup_stm32g431xx.o ABSOLUTE
    RESET                                    0x08000000   Section      472  startup_stm32g431xx.o(RESET)
    .ARM.Collect$$$$00000000                 0x080001d8   Section        0  entry.o(.ARM.Collect$$$$00000000)
    .ARM.Collect$$$$00000001                 0x080001d8   Section        4  entry2.o(.ARM.Collect$$$$00000001)
    .ARM.Collect$$$$00000004                 0x080001dc   Section        4  entry5.o(.ARM.Collect$$$$00000004)
    .ARM.Collect$$$$00000008                 0x080001e0   Section        0  entry7b.o(.ARM.Collect$$$$00000008)
    .ARM.Collect$$$$0000000A                 0x080001e0   Section        0  entry8b.o(.ARM.Collect$$$$0000000A)
    .ARM.Collect$$$$0000000B                 0x080001e0   Section        8  entry9a.o(.ARM.Collect$$$$0000000B)
    .ARM.Collect$$$$0000000D                 0x080001e8   Section        0  entry10a.o(.ARM.Collect$$$$0000000D)
    .ARM.Collect$$$$0000000F                 0x080001e8   Section        0  entry11a.o(.ARM.Collect$$$$0000000F)
    .ARM.Collect$$$$00002712                 0x080001e8   Section        4  entry2.o(.ARM.Collect$$$$00002712)
    __lit__00000000                          0x080001e8   Data           4  entry2.o(.ARM.Collect$$$$00002712)
    .text                                    0x080001ec   Section       36  startup_stm32g431xx.o(.text)
    $v0                                      0x080001ec   Number         0  startup_stm32g431xx.o(.text)
    .text                                    0x08000210   Section        0  uldiv.o(.text)
    .text                                    0x08000272   Section        0  memseta.o(.text)
    .text                                    0x08000296   Section        0  uidiv.o(.text)
    .text                                    0x080002c2   Section        0  llshl.o(.text)
    .text                                    0x080002e0   Section        0  llushr.o(.text)
    .text                                    0x08000300   Section        0  iusefp.o(.text)
    .text                                    0x08000300   Section        0  dadd.o(.text)
    .text                                    0x0800044e   Section        0  dmul.o(.text)
    .text                                    0x08000532   Section        0  ddiv.o(.text)
    .text                                    0x08000610   Section        0  dfixul.o(.text)
    .text                                    0x08000640   Section       48  cdrcmple.o(.text)
    .text                                    0x08000670   Section       36  init.o(.text)
    .text                                    0x08000694   Section        0  llsshr.o(.text)
    .text                                    0x080006b8   Section        0  depilogue.o(.text)
    i.BusFault_Handler                       0x08000772   Section        0  stm32g4xx_it.o(i.BusFault_Handler)
    i.DMA1_Channel1_IRQHandler               0x08000778   Section        0  stm32g4xx_it.o(i.DMA1_Channel1_IRQHandler)
    i.DMA_CalcDMAMUXChannelBaseAndMask       0x08000788   Section        0  stm32g4xx_hal_dma.o(i.DMA_CalcDMAMUXChannelBaseAndMask)
    DMA_CalcDMAMUXChannelBaseAndMask         0x08000789   Thumb Code    58  stm32g4xx_hal_dma.o(i.DMA_CalcDMAMUXChannelBaseAndMask)
    i.DMA_CalcDMAMUXRequestGenBaseAndMask    0x080007cc   Section        0  stm32g4xx_hal_dma.o(i.DMA_CalcDMAMUXRequestGenBaseAndMask)
    DMA_CalcDMAMUXRequestGenBaseAndMask      0x080007cd   Thumb Code    32  stm32g4xx_hal_dma.o(i.DMA_CalcDMAMUXRequestGenBaseAndMask)
    i.DMA_SetConfig                          0x080007f0   Section        0  stm32g4xx_hal_dma.o(i.DMA_SetConfig)
    DMA_SetConfig                            0x080007f1   Thumb Code    64  stm32g4xx_hal_dma.o(i.DMA_SetConfig)
    i.DebugMon_Handler                       0x08000830   Section        0  stm32g4xx_it.o(i.DebugMon_Handler)
    i.Delay_LCD                              0x08000832   Section        0  lcd.o(i.Delay_LCD)
    i.Error_Handler                          0x08000850   Section        0  main.o(i.Error_Handler)
    i.Five_second_proc                       0x08000858   Section        0  key.o(i.Five_second_proc)
    i.HAL_DMA_Abort                          0x080008dc   Section        0  stm32g4xx_hal_dma.o(i.HAL_DMA_Abort)
    i.HAL_DMA_Abort_IT                       0x08000952   Section        0  stm32g4xx_hal_dma.o(i.HAL_DMA_Abort_IT)
    i.HAL_DMA_IRQHandler                     0x080009e6   Section        0  stm32g4xx_hal_dma.o(i.HAL_DMA_IRQHandler)
    i.HAL_DMA_Init                           0x08000ae4   Section        0  stm32g4xx_hal_dma.o(i.HAL_DMA_Init)
    i.HAL_DMA_Start_IT                       0x08000bb4   Section        0  stm32g4xx_hal_dma.o(i.HAL_DMA_Start_IT)
    i.HAL_Delay                              0x08000c78   Section        0  stm32g4xx_hal.o(i.HAL_Delay)
    i.HAL_GPIO_Init                          0x08000ca0   Section        0  stm32g4xx_hal_gpio.o(i.HAL_GPIO_Init)
    i.HAL_GPIO_ReadPin                       0x08000e78   Section        0  stm32g4xx_hal_gpio.o(i.HAL_GPIO_ReadPin)
    i.HAL_GPIO_WritePin                      0x08000e88   Section        0  stm32g4xx_hal_gpio.o(i.HAL_GPIO_WritePin)
    i.HAL_GetTick                            0x08000e94   Section        0  stm32g4xx_hal.o(i.HAL_GetTick)
    i.HAL_IncTick                            0x08000ea0   Section        0  stm32g4xx_hal.o(i.HAL_IncTick)
    i.HAL_Init                               0x08000eb8   Section        0  stm32g4xx_hal.o(i.HAL_Init)
    i.HAL_InitTick                           0x08000ed8   Section        0  stm32g4xx_hal.o(i.HAL_InitTick)
    i.HAL_MspInit                            0x08000f30   Section        0  stm32g4xx_hal_msp.o(i.HAL_MspInit)
    i.HAL_NVIC_EnableIRQ                     0x08000f74   Section        0  stm32g4xx_hal_cortex.o(i.HAL_NVIC_EnableIRQ)
    i.HAL_NVIC_SetPriority                   0x08000f9c   Section        0  stm32g4xx_hal_cortex.o(i.HAL_NVIC_SetPriority)
    i.HAL_NVIC_SetPriorityGrouping           0x08001018   Section        0  stm32g4xx_hal_cortex.o(i.HAL_NVIC_SetPriorityGrouping)
    i.HAL_PWREx_ControlVoltageScaling        0x08001040   Section        0  stm32g4xx_hal_pwr_ex.o(i.HAL_PWREx_ControlVoltageScaling)
    i.HAL_PWREx_DisableUCPDDeadBattery       0x08001158   Section        0  stm32g4xx_hal_pwr_ex.o(i.HAL_PWREx_DisableUCPDDeadBattery)
    i.HAL_RCCEx_PeriphCLKConfig              0x0800116c   Section        0  stm32g4xx_hal_rcc_ex.o(i.HAL_RCCEx_PeriphCLKConfig)
    i.HAL_RCC_ClockConfig                    0x080014dc   Section        0  stm32g4xx_hal_rcc.o(i.HAL_RCC_ClockConfig)
    i.HAL_RCC_GetHCLKFreq                    0x08001700   Section        0  stm32g4xx_hal_rcc.o(i.HAL_RCC_GetHCLKFreq)
    i.HAL_RCC_GetPCLK1Freq                   0x0800170c   Section        0  stm32g4xx_hal_rcc.o(i.HAL_RCC_GetPCLK1Freq)
    i.HAL_RCC_GetPCLK2Freq                   0x08001730   Section        0  stm32g4xx_hal_rcc.o(i.HAL_RCC_GetPCLK2Freq)
    i.HAL_RCC_GetSysClockFreq                0x08001754   Section        0  stm32g4xx_hal_rcc.o(i.HAL_RCC_GetSysClockFreq)
    i.HAL_RCC_OscConfig                      0x080017ec   Section        0  stm32g4xx_hal_rcc.o(i.HAL_RCC_OscConfig)
    i.HAL_SYSTICK_Config                     0x08001d54   Section        0  stm32g4xx_hal_cortex.o(i.HAL_SYSTICK_Config)
    i.HAL_TIMEx_MasterConfigSynchronization  0x08001d88   Section        0  stm32g4xx_hal_tim_ex.o(i.HAL_TIMEx_MasterConfigSynchronization)
    i.HAL_TIM_Base_Init                      0x08001e40   Section        0  stm32g4xx_hal_tim.o(i.HAL_TIM_Base_Init)
    i.HAL_TIM_Base_MspInit                   0x08001eb0   Section        0  tim.o(i.HAL_TIM_Base_MspInit)
    i.HAL_TIM_ConfigClockSource              0x08001edc   Section        0  stm32g4xx_hal_tim.o(i.HAL_TIM_ConfigClockSource)
    i.HAL_TIM_MspPostInit                    0x0800200c   Section        0  tim.o(i.HAL_TIM_MspPostInit)
    i.HAL_TIM_PWM_ConfigChannel              0x08002060   Section        0  stm32g4xx_hal_tim.o(i.HAL_TIM_PWM_ConfigChannel)
    i.HAL_TIM_PWM_Init                       0x080021c8   Section        0  stm32g4xx_hal_tim.o(i.HAL_TIM_PWM_Init)
    i.HAL_TIM_PWM_MspInit                    0x08002236   Section        0  stm32g4xx_hal_tim.o(i.HAL_TIM_PWM_MspInit)
    i.HAL_TIM_PWM_Start                      0x08002238   Section        0  stm32g4xx_hal_tim.o(i.HAL_TIM_PWM_Start)
    i.HAL_UARTEx_DisableFifoMode             0x08002384   Section        0  stm32g4xx_hal_uart_ex.o(i.HAL_UARTEx_DisableFifoMode)
    i.HAL_UARTEx_ReceiveToIdle_DMA           0x080023d2   Section        0  stm32g4xx_hal_uart_ex.o(i.HAL_UARTEx_ReceiveToIdle_DMA)
    i.HAL_UARTEx_RxEventCallback             0x08002438   Section        0  uart_app.o(i.HAL_UARTEx_RxEventCallback)
    i.HAL_UARTEx_RxFifoFullCallback          0x0800244c   Section        0  stm32g4xx_hal_uart_ex.o(i.HAL_UARTEx_RxFifoFullCallback)
    i.HAL_UARTEx_SetRxFifoThreshold          0x0800244e   Section        0  stm32g4xx_hal_uart_ex.o(i.HAL_UARTEx_SetRxFifoThreshold)
    i.HAL_UARTEx_SetTxFifoThreshold          0x080024ac   Section        0  stm32g4xx_hal_uart_ex.o(i.HAL_UARTEx_SetTxFifoThreshold)
    i.HAL_UARTEx_TxFifoEmptyCallback         0x0800250a   Section        0  stm32g4xx_hal_uart_ex.o(i.HAL_UARTEx_TxFifoEmptyCallback)
    i.HAL_UARTEx_WakeupCallback              0x0800250c   Section        0  stm32g4xx_hal_uart_ex.o(i.HAL_UARTEx_WakeupCallback)
    i.HAL_UART_ErrorCallback                 0x0800250e   Section        0  stm32g4xx_hal_uart.o(i.HAL_UART_ErrorCallback)
    i.HAL_UART_IRQHandler                    0x08002510   Section        0  stm32g4xx_hal_uart.o(i.HAL_UART_IRQHandler)
    i.HAL_UART_Init                          0x08002818   Section        0  stm32g4xx_hal_uart.o(i.HAL_UART_Init)
    i.HAL_UART_MspInit                       0x08002890   Section        0  usart.o(i.HAL_UART_MspInit)
    i.HAL_UART_RxCpltCallback                0x08002970   Section        0  stm32g4xx_hal_uart.o(i.HAL_UART_RxCpltCallback)
    i.HAL_UART_RxHalfCpltCallback            0x08002972   Section        0  stm32g4xx_hal_uart.o(i.HAL_UART_RxHalfCpltCallback)
    i.HAL_UART_Transmit                      0x08002974   Section        0  stm32g4xx_hal_uart.o(i.HAL_UART_Transmit)
    i.HAL_UART_TxCpltCallback                0x08002a4a   Section        0  stm32g4xx_hal_uart.o(i.HAL_UART_TxCpltCallback)
    i.HardFault_Handler                      0x08002a4c   Section        0  stm32g4xx_it.o(i.HardFault_Handler)
    i.Key_proc                               0x08002a50   Section        0  key.o(i.Key_proc)
    i.Key_read                               0x08002bb4   Section        0  key.o(i.Key_read)
    i.LCD_BusIn                              0x08002bf8   Section        0  lcd.o(i.LCD_BusIn)
    i.LCD_BusOut                             0x08002c28   Section        0  lcd.o(i.LCD_BusOut)
    i.LCD_Clear                              0x08002c58   Section        0  lcd.o(i.LCD_Clear)
    i.LCD_CtrlLinesConfig                    0x08002c80   Section        0  lcd.o(i.LCD_CtrlLinesConfig)
    i.LCD_DisplayChar                        0x08002d44   Section        0  lcd.o(i.LCD_DisplayChar)
    i.LCD_DisplayStringLine                  0x08002d6c   Section        0  lcd.o(i.LCD_DisplayStringLine)
    i.LCD_DrawChar                           0x08002d98   Section        0  lcd.o(i.LCD_DrawChar)
    i.LCD_Init                               0x08002e04   Section        0  lcd.o(i.LCD_Init)
    i.LCD_ReadReg                            0x08002e3c   Section        0  lcd.o(i.LCD_ReadReg)
    i.LCD_SetBackColor                       0x08002ee8   Section        0  lcd.o(i.LCD_SetBackColor)
    i.LCD_SetCursor                          0x08002ef8   Section        0  lcd.o(i.LCD_SetCursor)
    i.LCD_SetTextColor                       0x08002f10   Section        0  lcd.o(i.LCD_SetTextColor)
    i.LCD_WriteRAM                           0x08002f20   Section        0  lcd.o(i.LCD_WriteRAM)
    i.LCD_WriteRAM_Prepare                   0x08002f98   Section        0  lcd.o(i.LCD_WriteRAM_Prepare)
    i.LCD_WriteReg                           0x08003010   Section        0  lcd.o(i.LCD_WriteReg)
    i.LCD_printf                             0x080030a0   Section        0  lcd_app.o(i.LCD_printf)
    i.MX_DMA_Init                            0x080030d4   Section        0  dma.o(i.MX_DMA_Init)
    i.MX_GPIO_Init                           0x08003124   Section        0  gpio.o(i.MX_GPIO_Init)
    i.MX_TIM2_Init                           0x08003238   Section        0  tim.o(i.MX_TIM2_Init)
    i.MX_USART1_UART_Init                    0x080032e0   Section        0  usart.o(i.MX_USART1_UART_Init)
    i.MemManage_Handler                      0x0800336c   Section        0  stm32g4xx_it.o(i.MemManage_Handler)
    i.NMI_Handler                            0x08003370   Section        0  stm32g4xx_it.o(i.NMI_Handler)
    i.PendSV_Handler                         0x08003374   Section        0  stm32g4xx_it.o(i.PendSV_Handler)
    i.RCC_GetSysClockFreqFromPLLSource       0x08003378   Section        0  stm32g4xx_hal_rcc.o(i.RCC_GetSysClockFreqFromPLLSource)
    RCC_GetSysClockFreqFromPLLSource         0x08003379   Thumb Code    90  stm32g4xx_hal_rcc.o(i.RCC_GetSysClockFreqFromPLLSource)
    i.REG_8230_Init                          0x080033e0   Section        0  lcd.o(i.REG_8230_Init)
    i.REG_932X_Init                          0x08003500   Section        0  lcd.o(i.REG_932X_Init)
    i.SVC_Handler                            0x08003700   Section        0  stm32g4xx_it.o(i.SVC_Handler)
    i.SysTick_Handler                        0x08003702   Section        0  stm32g4xx_it.o(i.SysTick_Handler)
    i.SystemClock_Config                     0x0800370a   Section        0  main.o(i.SystemClock_Config)
    i.SystemInit                             0x08003774   Section        0  system_stm32g4xx.o(i.SystemInit)
    i.TIM_Base_SetConfig                     0x08003788   Section        0  stm32g4xx_hal_tim.o(i.TIM_Base_SetConfig)
    i.TIM_CCxChannelCmd                      0x08003844   Section        0  stm32g4xx_hal_tim.o(i.TIM_CCxChannelCmd)
    i.TIM_ETR_SetConfig                      0x08003866   Section        0  stm32g4xx_hal_tim.o(i.TIM_ETR_SetConfig)
    i.TIM_ITRx_SetConfig                     0x0800387c   Section        0  stm32g4xx_hal_tim.o(i.TIM_ITRx_SetConfig)
    TIM_ITRx_SetConfig                       0x0800387d   Thumb Code    18  stm32g4xx_hal_tim.o(i.TIM_ITRx_SetConfig)
    i.TIM_OC1_SetConfig                      0x08003894   Section        0  stm32g4xx_hal_tim.o(i.TIM_OC1_SetConfig)
    TIM_OC1_SetConfig                        0x08003895   Thumb Code   146  stm32g4xx_hal_tim.o(i.TIM_OC1_SetConfig)
    i.TIM_OC2_SetConfig                      0x08003940   Section        0  stm32g4xx_hal_tim.o(i.TIM_OC2_SetConfig)
    i.TIM_OC3_SetConfig                      0x080039f4   Section        0  stm32g4xx_hal_tim.o(i.TIM_OC3_SetConfig)
    TIM_OC3_SetConfig                        0x080039f5   Thumb Code   154  stm32g4xx_hal_tim.o(i.TIM_OC3_SetConfig)
    i.TIM_OC4_SetConfig                      0x08003aa8   Section        0  stm32g4xx_hal_tim.o(i.TIM_OC4_SetConfig)
    TIM_OC4_SetConfig                        0x08003aa9   Thumb Code   156  stm32g4xx_hal_tim.o(i.TIM_OC4_SetConfig)
    i.TIM_OC5_SetConfig                      0x08003b5c   Section        0  stm32g4xx_hal_tim.o(i.TIM_OC5_SetConfig)
    TIM_OC5_SetConfig                        0x08003b5d   Thumb Code    86  stm32g4xx_hal_tim.o(i.TIM_OC5_SetConfig)
    i.TIM_OC6_SetConfig                      0x08003bcc   Section        0  stm32g4xx_hal_tim.o(i.TIM_OC6_SetConfig)
    TIM_OC6_SetConfig                        0x08003bcd   Thumb Code    88  stm32g4xx_hal_tim.o(i.TIM_OC6_SetConfig)
    i.TIM_TI1_ConfigInputStage               0x08003c3c   Section        0  stm32g4xx_hal_tim.o(i.TIM_TI1_ConfigInputStage)
    TIM_TI1_ConfigInputStage                 0x08003c3d   Thumb Code    38  stm32g4xx_hal_tim.o(i.TIM_TI1_ConfigInputStage)
    i.TIM_TI2_ConfigInputStage               0x08003c62   Section        0  stm32g4xx_hal_tim.o(i.TIM_TI2_ConfigInputStage)
    TIM_TI2_ConfigInputStage                 0x08003c63   Thumb Code    40  stm32g4xx_hal_tim.o(i.TIM_TI2_ConfigInputStage)
    i.Tim_set_duty                           0x08003c8c   Section        0  tim_app.o(i.Tim_set_duty)
    i.Tim_set_freq                           0x08003cc4   Section        0  tim_app.o(i.Tim_set_freq)
    i.UARTEx_SetNbDataToProcess              0x08003cf0   Section        0  stm32g4xx_hal_uart_ex.o(i.UARTEx_SetNbDataToProcess)
    UARTEx_SetNbDataToProcess                0x08003cf1   Thumb Code    78  stm32g4xx_hal_uart_ex.o(i.UARTEx_SetNbDataToProcess)
    i.UART_AdvFeatureConfig                  0x08003d48   Section        0  stm32g4xx_hal_uart.o(i.UART_AdvFeatureConfig)
    i.UART_CheckIdleState                    0x08003e40   Section        0  stm32g4xx_hal_uart.o(i.UART_CheckIdleState)
    i.UART_DMAAbortOnError                   0x08003eb6   Section        0  stm32g4xx_hal_uart.o(i.UART_DMAAbortOnError)
    UART_DMAAbortOnError                     0x08003eb7   Thumb Code    24  stm32g4xx_hal_uart.o(i.UART_DMAAbortOnError)
    i.UART_DMAError                          0x08003ece   Section        0  stm32g4xx_hal_uart.o(i.UART_DMAError)
    UART_DMAError                            0x08003ecf   Thumb Code    94  stm32g4xx_hal_uart.o(i.UART_DMAError)
    i.UART_DMAReceiveCplt                    0x08003f2c   Section        0  stm32g4xx_hal_uart.o(i.UART_DMAReceiveCplt)
    UART_DMAReceiveCplt                      0x08003f2d   Thumb Code   108  stm32g4xx_hal_uart.o(i.UART_DMAReceiveCplt)
    i.UART_DMARxHalfCplt                     0x08003f98   Section        0  stm32g4xx_hal_uart.o(i.UART_DMARxHalfCplt)
    UART_DMARxHalfCplt                       0x08003f99   Thumb Code    34  stm32g4xx_hal_uart.o(i.UART_DMARxHalfCplt)
    i.UART_EndRxTransfer                     0x08003fbc   Section        0  stm32g4xx_hal_uart.o(i.UART_EndRxTransfer)
    UART_EndRxTransfer                       0x08003fbd   Thumb Code    56  stm32g4xx_hal_uart.o(i.UART_EndRxTransfer)
    i.UART_EndTransmit_IT                    0x08003ff8   Section        0  stm32g4xx_hal_uart.o(i.UART_EndTransmit_IT)
    UART_EndTransmit_IT                      0x08003ff9   Thumb Code    34  stm32g4xx_hal_uart.o(i.UART_EndTransmit_IT)
    i.UART_EndTxTransfer                     0x0800401a   Section        0  stm32g4xx_hal_uart.o(i.UART_EndTxTransfer)
    UART_EndTxTransfer                       0x0800401b   Thumb Code    32  stm32g4xx_hal_uart.o(i.UART_EndTxTransfer)
    i.UART_SetConfig                         0x0800403c   Section        0  stm32g4xx_hal_uart.o(i.UART_SetConfig)
    i.UART_Start_Receive_DMA                 0x080043c8   Section        0  stm32g4xx_hal_uart.o(i.UART_Start_Receive_DMA)
    i.UART_WaitOnFlagUntilTimeout            0x08004468   Section        0  stm32g4xx_hal_uart.o(i.UART_WaitOnFlagUntilTimeout)
    i.UART_proc                              0x08004528   Section        0  uart_app.o(i.UART_proc)
    i.USART1_IRQHandler                      0x0800459c   Section        0  stm32g4xx_it.o(i.USART1_IRQHandler)
    i.UsageFault_Handler                     0x080045cc   Section        0  stm32g4xx_it.o(i.UsageFault_Handler)
    i.__0printf                              0x080045d0   Section        0  printfa.o(i.__0printf)
    i.__0vsprintf                            0x080045f0   Section        0  printfa.o(i.__0vsprintf)
    i.__NVIC_GetPriorityGrouping             0x08004614   Section        0  stm32g4xx_hal_cortex.o(i.__NVIC_GetPriorityGrouping)
    __NVIC_GetPriorityGrouping               0x08004615   Thumb Code    10  stm32g4xx_hal_cortex.o(i.__NVIC_GetPriorityGrouping)
    i.__NVIC_SetPriority                     0x08004624   Section        0  stm32g4xx_hal_cortex.o(i.__NVIC_SetPriority)
    __NVIC_SetPriority                       0x08004625   Thumb Code    32  stm32g4xx_hal_cortex.o(i.__NVIC_SetPriority)
    i.__scatterload_copy                     0x0800464c   Section       14  handlers.o(i.__scatterload_copy)
    i.__scatterload_null                     0x0800465a   Section        2  handlers.o(i.__scatterload_null)
    i.__scatterload_zeroinit                 0x0800465c   Section       14  handlers.o(i.__scatterload_zeroinit)
    i._fp_digits                             0x0800466c   Section        0  printfa.o(i._fp_digits)
    _fp_digits                               0x0800466d   Thumb Code   366  printfa.o(i._fp_digits)
    i._printf_core                           0x080047f0   Section        0  printfa.o(i._printf_core)
    _printf_core                             0x080047f1   Thumb Code  1744  printfa.o(i._printf_core)
    i._printf_post_padding                   0x08004ecc   Section        0  printfa.o(i._printf_post_padding)
    _printf_post_padding                     0x08004ecd   Thumb Code    36  printfa.o(i._printf_post_padding)
    i._printf_pre_padding                    0x08004ef0   Section        0  printfa.o(i._printf_pre_padding)
    _printf_pre_padding                      0x08004ef1   Thumb Code    46  printfa.o(i._printf_pre_padding)
    i._sputc                                 0x08004f1e   Section        0  printfa.o(i._sputc)
    _sputc                                   0x08004f1f   Thumb Code    10  printfa.o(i._sputc)
    i.fputc                                  0x08004f28   Section        0  usart.o(i.fputc)
    i.lcd_proc                               0x08004f44   Section        0  lcd_app.o(i.lcd_proc)
    i.led_fun                                0x08005030   Section        0  led.o(i.led_fun)
    i.led_proc                               0x08005098   Section        0  led.o(i.led_proc)
    i.main                                   0x08005108   Section        0  main.o(i.main)
    i.scheduler_init                         0x0800516c   Section        0  scheduler.o(i.scheduler_init)
    i.scheduler_run                          0x08005178   Section        0  scheduler.o(i.scheduler_run)
    i.system_init                            0x080051d0   Section        0  system.o(i.system_init)
    i.tim_proc                               0x0800520c   Section        0  tim_app.o(i.tim_proc)
    .constdata                               0x08005258   Section       24  stm32g4xx_hal_uart.o(.constdata)
    .constdata                               0x08005270   Section       16  stm32g4xx_hal_uart_ex.o(.constdata)
    numerator                                0x08005270   Data           8  stm32g4xx_hal_uart_ex.o(.constdata)
    denominator                              0x08005278   Data           8  stm32g4xx_hal_uart_ex.o(.constdata)
    .constdata                               0x08005280   Section       24  system_stm32g4xx.o(.constdata)
    .constdata                               0x08005298   Section     4560  lcd.o(.constdata)
    .data                                    0x20000000   Section       12  stm32g4xx_hal.o(.data)
    .data                                    0x2000000c   Section        4  system_stm32g4xx.o(.data)
    .data                                    0x20000010   Section       15  key.o(.data)
    .data                                    0x20000020   Section       13  lcd_app.o(.data)
    .data                                    0x2000002e   Section       11  led.o(.data)
    temp_old                                 0x20000038   Data           1  led.o(.data)
    .data                                    0x2000003a   Section        4  tim_app.o(.data)
    Freq_old                                 0x2000003a   Data           2  tim_app.o(.data)
    duty_old                                 0x2000003c   Data           2  tim_app.o(.data)
    .data                                    0x2000003e   Section        2  uart_app.o(.data)
    .data                                    0x20000040   Section       73  scheduler.o(.data)
    task_scheduler                           0x20000040   Data          72  scheduler.o(.data)
    .data                                    0x2000008a   Section        6  lcd.o(.data)
    TextColor                                0x2000008a   Data           2  lcd.o(.data)
    BackColor                                0x2000008c   Data           2  lcd.o(.data)
    .data                                    0x20000090   Section        4  stdout.o(.data)
    .bss                                     0x20000094   Section       76  tim.o(.bss)
    .bss                                     0x200000e0   Section      240  usart.o(.bss)
    .bss                                     0x200001d0   Section       30  uart_app.o(.bss)
    STACK                                    0x200001f0   Section     1024  startup_stm32g431xx.o(STACK)

    Global Symbols

    Symbol Name                              Value     Ov Type        Size  Object(Section)

    BuildAttributes$$THM_ISAv4$E$P$D$K$B$S$7EM$VFPi3$EXTD16$VFPS$VFMA$PE$A:L22UL41UL21$X:L11$S22US41US21$IEEE1$IW$USESV6$~STKCKD$USESV7$~SHL$OSPACE$ROPI$EBA8$MICROLIB$REQ8$PRES8$EABIv2 0x00000000   Number         0  anon$$obj.o ABSOLUTE
    __ARM_use_no_argv                        0x00000000   Number         0  main.o ABSOLUTE
    __cpp_initialize__aeabi_                  - Undefined Weak Reference
    __cxa_finalize                            - Undefined Weak Reference
    __decompress                              - Undefined Weak Reference
    _clock_init                               - Undefined Weak Reference
    _microlib_exit                            - Undefined Weak Reference
    __Vectors_Size                           0x000001d8   Number         0  startup_stm32g431xx.o ABSOLUTE
    __Vectors                                0x08000000   Data           4  startup_stm32g431xx.o(RESET)
    __Vectors_End                            0x080001d8   Data           0  startup_stm32g431xx.o(RESET)
    __main                                   0x080001d9   Thumb Code     0  entry.o(.ARM.Collect$$$$00000000)
    _main_stk                                0x080001d9   Thumb Code     0  entry2.o(.ARM.Collect$$$$00000001)
    _main_scatterload                        0x080001dd   Thumb Code     0  entry5.o(.ARM.Collect$$$$00000004)
    __main_after_scatterload                 0x080001e1   Thumb Code     0  entry5.o(.ARM.Collect$$$$00000004)
    _main_clock                              0x080001e1   Thumb Code     0  entry7b.o(.ARM.Collect$$$$00000008)
    _main_cpp_init                           0x080001e1   Thumb Code     0  entry8b.o(.ARM.Collect$$$$0000000A)
    _main_init                               0x080001e1   Thumb Code     0  entry9a.o(.ARM.Collect$$$$0000000B)
    __rt_final_cpp                           0x080001e9   Thumb Code     0  entry10a.o(.ARM.Collect$$$$0000000D)
    __rt_final_exit                          0x080001e9   Thumb Code     0  entry11a.o(.ARM.Collect$$$$0000000F)
    Reset_Handler                            0x080001ed   Thumb Code     8  startup_stm32g431xx.o(.text)
    ADC1_2_IRQHandler                        0x08000207   Thumb Code     0  startup_stm32g431xx.o(.text)
    COMP1_2_3_IRQHandler                     0x08000207   Thumb Code     0  startup_stm32g431xx.o(.text)
    COMP4_IRQHandler                         0x08000207   Thumb Code     0  startup_stm32g431xx.o(.text)
    CORDIC_IRQHandler                        0x08000207   Thumb Code     0  startup_stm32g431xx.o(.text)
    CRS_IRQHandler                           0x08000207   Thumb Code     0  startup_stm32g431xx.o(.text)
    DMA1_Channel2_IRQHandler                 0x08000207   Thumb Code     0  startup_stm32g431xx.o(.text)
    DMA1_Channel3_IRQHandler                 0x08000207   Thumb Code     0  startup_stm32g431xx.o(.text)
    DMA1_Channel4_IRQHandler                 0x08000207   Thumb Code     0  startup_stm32g431xx.o(.text)
    DMA1_Channel5_IRQHandler                 0x08000207   Thumb Code     0  startup_stm32g431xx.o(.text)
    DMA1_Channel6_IRQHandler                 0x08000207   Thumb Code     0  startup_stm32g431xx.o(.text)
    DMA2_Channel1_IRQHandler                 0x08000207   Thumb Code     0  startup_stm32g431xx.o(.text)
    DMA2_Channel2_IRQHandler                 0x08000207   Thumb Code     0  startup_stm32g431xx.o(.text)
    DMA2_Channel3_IRQHandler                 0x08000207   Thumb Code     0  startup_stm32g431xx.o(.text)
    DMA2_Channel4_IRQHandler                 0x08000207   Thumb Code     0  startup_stm32g431xx.o(.text)
    DMA2_Channel5_IRQHandler                 0x08000207   Thumb Code     0  startup_stm32g431xx.o(.text)
    DMA2_Channel6_IRQHandler                 0x08000207   Thumb Code     0  startup_stm32g431xx.o(.text)
    DMAMUX_OVR_IRQHandler                    0x08000207   Thumb Code     0  startup_stm32g431xx.o(.text)
    EXTI0_IRQHandler                         0x08000207   Thumb Code     0  startup_stm32g431xx.o(.text)
    EXTI15_10_IRQHandler                     0x08000207   Thumb Code     0  startup_stm32g431xx.o(.text)
    EXTI1_IRQHandler                         0x08000207   Thumb Code     0  startup_stm32g431xx.o(.text)
    EXTI2_IRQHandler                         0x08000207   Thumb Code     0  startup_stm32g431xx.o(.text)
    EXTI3_IRQHandler                         0x08000207   Thumb Code     0  startup_stm32g431xx.o(.text)
    EXTI4_IRQHandler                         0x08000207   Thumb Code     0  startup_stm32g431xx.o(.text)
    EXTI9_5_IRQHandler                       0x08000207   Thumb Code     0  startup_stm32g431xx.o(.text)
    FDCAN1_IT0_IRQHandler                    0x08000207   Thumb Code     0  startup_stm32g431xx.o(.text)
    FDCAN1_IT1_IRQHandler                    0x08000207   Thumb Code     0  startup_stm32g431xx.o(.text)
    FLASH_IRQHandler                         0x08000207   Thumb Code     0  startup_stm32g431xx.o(.text)
    FMAC_IRQHandler                          0x08000207   Thumb Code     0  startup_stm32g431xx.o(.text)
    FPU_IRQHandler                           0x08000207   Thumb Code     0  startup_stm32g431xx.o(.text)
    I2C1_ER_IRQHandler                       0x08000207   Thumb Code     0  startup_stm32g431xx.o(.text)
    I2C1_EV_IRQHandler                       0x08000207   Thumb Code     0  startup_stm32g431xx.o(.text)
    I2C2_ER_IRQHandler                       0x08000207   Thumb Code     0  startup_stm32g431xx.o(.text)
    I2C2_EV_IRQHandler                       0x08000207   Thumb Code     0  startup_stm32g431xx.o(.text)
    I2C3_ER_IRQHandler                       0x08000207   Thumb Code     0  startup_stm32g431xx.o(.text)
    I2C3_EV_IRQHandler                       0x08000207   Thumb Code     0  startup_stm32g431xx.o(.text)
    LPTIM1_IRQHandler                        0x08000207   Thumb Code     0  startup_stm32g431xx.o(.text)
    LPUART1_IRQHandler                       0x08000207   Thumb Code     0  startup_stm32g431xx.o(.text)
    PVD_PVM_IRQHandler                       0x08000207   Thumb Code     0  startup_stm32g431xx.o(.text)
    RCC_IRQHandler                           0x08000207   Thumb Code     0  startup_stm32g431xx.o(.text)
    RNG_IRQHandler                           0x08000207   Thumb Code     0  startup_stm32g431xx.o(.text)
    RTC_Alarm_IRQHandler                     0x08000207   Thumb Code     0  startup_stm32g431xx.o(.text)
    RTC_TAMP_LSECSS_IRQHandler               0x08000207   Thumb Code     0  startup_stm32g431xx.o(.text)
    RTC_WKUP_IRQHandler                      0x08000207   Thumb Code     0  startup_stm32g431xx.o(.text)
    SAI1_IRQHandler                          0x08000207   Thumb Code     0  startup_stm32g431xx.o(.text)
    SPI1_IRQHandler                          0x08000207   Thumb Code     0  startup_stm32g431xx.o(.text)
    SPI2_IRQHandler                          0x08000207   Thumb Code     0  startup_stm32g431xx.o(.text)
    SPI3_IRQHandler                          0x08000207   Thumb Code     0  startup_stm32g431xx.o(.text)
    TIM1_BRK_TIM15_IRQHandler                0x08000207   Thumb Code     0  startup_stm32g431xx.o(.text)
    TIM1_CC_IRQHandler                       0x08000207   Thumb Code     0  startup_stm32g431xx.o(.text)
    TIM1_TRG_COM_TIM17_IRQHandler            0x08000207   Thumb Code     0  startup_stm32g431xx.o(.text)
    TIM1_UP_TIM16_IRQHandler                 0x08000207   Thumb Code     0  startup_stm32g431xx.o(.text)
    TIM2_IRQHandler                          0x08000207   Thumb Code     0  startup_stm32g431xx.o(.text)
    TIM3_IRQHandler                          0x08000207   Thumb Code     0  startup_stm32g431xx.o(.text)
    TIM4_IRQHandler                          0x08000207   Thumb Code     0  startup_stm32g431xx.o(.text)
    TIM6_DAC_IRQHandler                      0x08000207   Thumb Code     0  startup_stm32g431xx.o(.text)
    TIM7_IRQHandler                          0x08000207   Thumb Code     0  startup_stm32g431xx.o(.text)
    TIM8_BRK_IRQHandler                      0x08000207   Thumb Code     0  startup_stm32g431xx.o(.text)
    TIM8_CC_IRQHandler                       0x08000207   Thumb Code     0  startup_stm32g431xx.o(.text)
    TIM8_TRG_COM_IRQHandler                  0x08000207   Thumb Code     0  startup_stm32g431xx.o(.text)
    TIM8_UP_IRQHandler                       0x08000207   Thumb Code     0  startup_stm32g431xx.o(.text)
    UART4_IRQHandler                         0x08000207   Thumb Code     0  startup_stm32g431xx.o(.text)
    UCPD1_IRQHandler                         0x08000207   Thumb Code     0  startup_stm32g431xx.o(.text)
    USART2_IRQHandler                        0x08000207   Thumb Code     0  startup_stm32g431xx.o(.text)
    USART3_IRQHandler                        0x08000207   Thumb Code     0  startup_stm32g431xx.o(.text)
    USBWakeUp_IRQHandler                     0x08000207   Thumb Code     0  startup_stm32g431xx.o(.text)
    USB_HP_IRQHandler                        0x08000207   Thumb Code     0  startup_stm32g431xx.o(.text)
    USB_LP_IRQHandler                        0x08000207   Thumb Code     0  startup_stm32g431xx.o(.text)
    WWDG_IRQHandler                          0x08000207   Thumb Code     0  startup_stm32g431xx.o(.text)
    __aeabi_uldivmod                         0x08000211   Thumb Code    98  uldiv.o(.text)
    __aeabi_memset                           0x08000273   Thumb Code    14  memseta.o(.text)
    __aeabi_memset4                          0x08000273   Thumb Code     0  memseta.o(.text)
    __aeabi_memset8                          0x08000273   Thumb Code     0  memseta.o(.text)
    __aeabi_memclr                           0x08000281   Thumb Code     4  memseta.o(.text)
    __aeabi_memclr4                          0x08000281   Thumb Code     0  memseta.o(.text)
    __aeabi_memclr8                          0x08000281   Thumb Code     0  memseta.o(.text)
    _memset$wrapper                          0x08000285   Thumb Code    18  memseta.o(.text)
    __aeabi_uidiv                            0x08000297   Thumb Code     0  uidiv.o(.text)
    __aeabi_uidivmod                         0x08000297   Thumb Code    44  uidiv.o(.text)
    __aeabi_llsl                             0x080002c3   Thumb Code    30  llshl.o(.text)
    _ll_shift_l                              0x080002c3   Thumb Code     0  llshl.o(.text)
    __aeabi_llsr                             0x080002e1   Thumb Code    32  llushr.o(.text)
    _ll_ushift_r                             0x080002e1   Thumb Code     0  llushr.o(.text)
    __I$use$fp                               0x08000301   Thumb Code     0  iusefp.o(.text)
    __aeabi_dadd                             0x08000301   Thumb Code   322  dadd.o(.text)
    __aeabi_dsub                             0x08000443   Thumb Code     6  dadd.o(.text)
    __aeabi_drsub                            0x08000449   Thumb Code     6  dadd.o(.text)
    __aeabi_dmul                             0x0800044f   Thumb Code   228  dmul.o(.text)
    __aeabi_ddiv                             0x08000533   Thumb Code   222  ddiv.o(.text)
    __aeabi_d2ulz                            0x08000611   Thumb Code    48  dfixul.o(.text)
    __aeabi_cdrcmple                         0x08000641   Thumb Code    48  cdrcmple.o(.text)
    __scatterload                            0x08000671   Thumb Code    28  init.o(.text)
    __scatterload_rt2                        0x08000671   Thumb Code     0  init.o(.text)
    __aeabi_lasr                             0x08000695   Thumb Code    36  llsshr.o(.text)
    _ll_sshift_r                             0x08000695   Thumb Code     0  llsshr.o(.text)
    _double_round                            0x080006b9   Thumb Code    30  depilogue.o(.text)
    _double_epilogue                         0x080006d7   Thumb Code   156  depilogue.o(.text)
    BusFault_Handler                         0x08000773   Thumb Code     4  stm32g4xx_it.o(i.BusFault_Handler)
    DMA1_Channel1_IRQHandler                 0x08000779   Thumb Code    10  stm32g4xx_it.o(i.DMA1_Channel1_IRQHandler)
    DebugMon_Handler                         0x08000831   Thumb Code     2  stm32g4xx_it.o(i.DebugMon_Handler)
    Delay_LCD                                0x08000833   Thumb Code    30  lcd.o(i.Delay_LCD)
    Error_Handler                            0x08000851   Thumb Code     6  main.o(i.Error_Handler)
    Five_second_proc                         0x08000859   Thumb Code   104  key.o(i.Five_second_proc)
    HAL_DMA_Abort                            0x080008dd   Thumb Code   118  stm32g4xx_hal_dma.o(i.HAL_DMA_Abort)
    HAL_DMA_Abort_IT                         0x08000953   Thumb Code   148  stm32g4xx_hal_dma.o(i.HAL_DMA_Abort_IT)
    HAL_DMA_IRQHandler                       0x080009e7   Thumb Code   254  stm32g4xx_hal_dma.o(i.HAL_DMA_IRQHandler)
    HAL_DMA_Init                             0x08000ae5   Thumb Code   200  stm32g4xx_hal_dma.o(i.HAL_DMA_Init)
    HAL_DMA_Start_IT                         0x08000bb5   Thumb Code   194  stm32g4xx_hal_dma.o(i.HAL_DMA_Start_IT)
    HAL_Delay                                0x08000c79   Thumb Code    36  stm32g4xx_hal.o(i.HAL_Delay)
    HAL_GPIO_Init                            0x08000ca1   Thumb Code   438  stm32g4xx_hal_gpio.o(i.HAL_GPIO_Init)
    HAL_GPIO_ReadPin                         0x08000e79   Thumb Code    16  stm32g4xx_hal_gpio.o(i.HAL_GPIO_ReadPin)
    HAL_GPIO_WritePin                        0x08000e89   Thumb Code    10  stm32g4xx_hal_gpio.o(i.HAL_GPIO_WritePin)
    HAL_GetTick                              0x08000e95   Thumb Code     6  stm32g4xx_hal.o(i.HAL_GetTick)
    HAL_IncTick                              0x08000ea1   Thumb Code    16  stm32g4xx_hal.o(i.HAL_IncTick)
    HAL_Init                                 0x08000eb9   Thumb Code    30  stm32g4xx_hal.o(i.HAL_Init)
    HAL_InitTick                             0x08000ed9   Thumb Code    74  stm32g4xx_hal.o(i.HAL_InitTick)
    HAL_MspInit                              0x08000f31   Thumb Code    62  stm32g4xx_hal_msp.o(i.HAL_MspInit)
    HAL_NVIC_EnableIRQ                       0x08000f75   Thumb Code    40  stm32g4xx_hal_cortex.o(i.HAL_NVIC_EnableIRQ)
    HAL_NVIC_SetPriority                     0x08000f9d   Thumb Code   122  stm32g4xx_hal_cortex.o(i.HAL_NVIC_SetPriority)
    HAL_NVIC_SetPriorityGrouping             0x08001019   Thumb Code    32  stm32g4xx_hal_cortex.o(i.HAL_NVIC_SetPriorityGrouping)
    HAL_PWREx_ControlVoltageScaling          0x08001041   Thumb Code   268  stm32g4xx_hal_pwr_ex.o(i.HAL_PWREx_ControlVoltageScaling)
    HAL_PWREx_DisableUCPDDeadBattery         0x08001159   Thumb Code    14  stm32g4xx_hal_pwr_ex.o(i.HAL_PWREx_DisableUCPDDeadBattery)
    HAL_RCCEx_PeriphCLKConfig                0x0800116d   Thumb Code   872  stm32g4xx_hal_rcc_ex.o(i.HAL_RCCEx_PeriphCLKConfig)
    HAL_RCC_ClockConfig                      0x080014dd   Thumb Code   522  stm32g4xx_hal_rcc.o(i.HAL_RCC_ClockConfig)
    HAL_RCC_GetHCLKFreq                      0x08001701   Thumb Code     6  stm32g4xx_hal_rcc.o(i.HAL_RCC_GetHCLKFreq)
    HAL_RCC_GetPCLK1Freq                     0x0800170d   Thumb Code    26  stm32g4xx_hal_rcc.o(i.HAL_RCC_GetPCLK1Freq)
    HAL_RCC_GetPCLK2Freq                     0x08001731   Thumb Code    26  stm32g4xx_hal_rcc.o(i.HAL_RCC_GetPCLK2Freq)
    HAL_RCC_GetSysClockFreq                  0x08001755   Thumb Code   138  stm32g4xx_hal_rcc.o(i.HAL_RCC_GetSysClockFreq)
    HAL_RCC_OscConfig                        0x080017ed   Thumb Code  1370  stm32g4xx_hal_rcc.o(i.HAL_RCC_OscConfig)
    HAL_SYSTICK_Config                       0x08001d55   Thumb Code    52  stm32g4xx_hal_cortex.o(i.HAL_SYSTICK_Config)
    HAL_TIMEx_MasterConfigSynchronization    0x08001d89   Thumb Code   158  stm32g4xx_hal_tim_ex.o(i.HAL_TIMEx_MasterConfigSynchronization)
    HAL_TIM_Base_Init                        0x08001e41   Thumb Code   110  stm32g4xx_hal_tim.o(i.HAL_TIM_Base_Init)
    HAL_TIM_Base_MspInit                     0x08001eb1   Thumb Code    40  tim.o(i.HAL_TIM_Base_MspInit)
    HAL_TIM_ConfigClockSource                0x08001edd   Thumb Code   296  stm32g4xx_hal_tim.o(i.HAL_TIM_ConfigClockSource)
    HAL_TIM_MspPostInit                      0x0800200d   Thumb Code    80  tim.o(i.HAL_TIM_MspPostInit)
    HAL_TIM_PWM_ConfigChannel                0x08002061   Thumb Code   360  stm32g4xx_hal_tim.o(i.HAL_TIM_PWM_ConfigChannel)
    HAL_TIM_PWM_Init                         0x080021c9   Thumb Code   110  stm32g4xx_hal_tim.o(i.HAL_TIM_PWM_Init)
    HAL_TIM_PWM_MspInit                      0x08002237   Thumb Code     2  stm32g4xx_hal_tim.o(i.HAL_TIM_PWM_MspInit)
    HAL_TIM_PWM_Start                        0x08002239   Thumb Code   298  stm32g4xx_hal_tim.o(i.HAL_TIM_PWM_Start)
    HAL_UARTEx_DisableFifoMode               0x08002385   Thumb Code    78  stm32g4xx_hal_uart_ex.o(i.HAL_UARTEx_DisableFifoMode)
    HAL_UARTEx_ReceiveToIdle_DMA             0x080023d3   Thumb Code   102  stm32g4xx_hal_uart_ex.o(i.HAL_UARTEx_ReceiveToIdle_DMA)
    HAL_UARTEx_RxEventCallback               0x08002439   Thumb Code    12  uart_app.o(i.HAL_UARTEx_RxEventCallback)
    HAL_UARTEx_RxFifoFullCallback            0x0800244d   Thumb Code     2  stm32g4xx_hal_uart_ex.o(i.HAL_UARTEx_RxFifoFullCallback)
    HAL_UARTEx_SetRxFifoThreshold            0x0800244f   Thumb Code    94  stm32g4xx_hal_uart_ex.o(i.HAL_UARTEx_SetRxFifoThreshold)
    HAL_UARTEx_SetTxFifoThreshold            0x080024ad   Thumb Code    94  stm32g4xx_hal_uart_ex.o(i.HAL_UARTEx_SetTxFifoThreshold)
    HAL_UARTEx_TxFifoEmptyCallback           0x0800250b   Thumb Code     2  stm32g4xx_hal_uart_ex.o(i.HAL_UARTEx_TxFifoEmptyCallback)
    HAL_UARTEx_WakeupCallback                0x0800250d   Thumb Code     2  stm32g4xx_hal_uart_ex.o(i.HAL_UARTEx_WakeupCallback)
    HAL_UART_ErrorCallback                   0x0800250f   Thumb Code     2  stm32g4xx_hal_uart.o(i.HAL_UART_ErrorCallback)
    HAL_UART_IRQHandler                      0x08002511   Thumb Code   762  stm32g4xx_hal_uart.o(i.HAL_UART_IRQHandler)
    HAL_UART_Init                            0x08002819   Thumb Code   120  stm32g4xx_hal_uart.o(i.HAL_UART_Init)
    HAL_UART_MspInit                         0x08002891   Thumb Code   206  usart.o(i.HAL_UART_MspInit)
    HAL_UART_RxCpltCallback                  0x08002971   Thumb Code     2  stm32g4xx_hal_uart.o(i.HAL_UART_RxCpltCallback)
    HAL_UART_RxHalfCpltCallback              0x08002973   Thumb Code     2  stm32g4xx_hal_uart.o(i.HAL_UART_RxHalfCpltCallback)
    HAL_UART_Transmit                        0x08002975   Thumb Code   214  stm32g4xx_hal_uart.o(i.HAL_UART_Transmit)
    HAL_UART_TxCpltCallback                  0x08002a4b   Thumb Code     2  stm32g4xx_hal_uart.o(i.HAL_UART_TxCpltCallback)
    HardFault_Handler                        0x08002a4d   Thumb Code     4  stm32g4xx_it.o(i.HardFault_Handler)
    Key_proc                                 0x08002a51   Thumb Code   310  key.o(i.Key_proc)
    Key_read                                 0x08002bb5   Thumb Code    64  key.o(i.Key_read)
    LCD_BusIn                                0x08002bf9   Thumb Code    42  lcd.o(i.LCD_BusIn)
    LCD_BusOut                               0x08002c29   Thumb Code    42  lcd.o(i.LCD_BusOut)
    LCD_Clear                                0x08002c59   Thumb Code    38  lcd.o(i.LCD_Clear)
    LCD_CtrlLinesConfig                      0x08002c81   Thumb Code   186  lcd.o(i.LCD_CtrlLinesConfig)
    LCD_DisplayChar                          0x08002d45   Thumb Code    34  lcd.o(i.LCD_DisplayChar)
    LCD_DisplayStringLine                    0x08002d6d   Thumb Code    44  lcd.o(i.LCD_DisplayStringLine)
    LCD_DrawChar                             0x08002d99   Thumb Code   100  lcd.o(i.LCD_DrawChar)
    LCD_Init                                 0x08002e05   Thumb Code    50  lcd.o(i.LCD_Init)
    LCD_ReadReg                              0x08002e3d   Thumb Code   164  lcd.o(i.LCD_ReadReg)
    LCD_SetBackColor                         0x08002ee9   Thumb Code    12  lcd.o(i.LCD_SetBackColor)
    LCD_SetCursor                            0x08002ef9   Thumb Code    24  lcd.o(i.LCD_SetCursor)
    LCD_SetTextColor                         0x08002f11   Thumb Code    12  lcd.o(i.LCD_SetTextColor)
    LCD_WriteRAM                             0x08002f21   Thumb Code   110  lcd.o(i.LCD_WriteRAM)
    LCD_WriteRAM_Prepare                     0x08002f99   Thumb Code   112  lcd.o(i.LCD_WriteRAM_Prepare)
    LCD_WriteReg                             0x08003011   Thumb Code   136  lcd.o(i.LCD_WriteReg)
    LCD_printf                               0x080030a1   Thumb Code    50  lcd_app.o(i.LCD_printf)
    MX_DMA_Init                              0x080030d5   Thumb Code    74  dma.o(i.MX_DMA_Init)
    MX_GPIO_Init                             0x08003125   Thumb Code   258  gpio.o(i.MX_GPIO_Init)
    MX_TIM2_Init                             0x08003239   Thumb Code   162  tim.o(i.MX_TIM2_Init)
    MX_USART1_UART_Init                      0x080032e1   Thumb Code   124  usart.o(i.MX_USART1_UART_Init)
    MemManage_Handler                        0x0800336d   Thumb Code     4  stm32g4xx_it.o(i.MemManage_Handler)
    NMI_Handler                              0x08003371   Thumb Code     4  stm32g4xx_it.o(i.NMI_Handler)
    PendSV_Handler                           0x08003375   Thumb Code     2  stm32g4xx_it.o(i.PendSV_Handler)
    REG_8230_Init                            0x080033e1   Thumb Code   288  lcd.o(i.REG_8230_Init)
    REG_932X_Init                            0x08003501   Thumb Code   512  lcd.o(i.REG_932X_Init)
    SVC_Handler                              0x08003701   Thumb Code     2  stm32g4xx_it.o(i.SVC_Handler)
    SysTick_Handler                          0x08003703   Thumb Code     8  stm32g4xx_it.o(i.SysTick_Handler)
    SystemClock_Config                       0x0800370b   Thumb Code   104  main.o(i.SystemClock_Config)
    SystemInit                               0x08003775   Thumb Code    14  system_stm32g4xx.o(i.SystemInit)
    TIM_Base_SetConfig                       0x08003789   Thumb Code   158  stm32g4xx_hal_tim.o(i.TIM_Base_SetConfig)
    TIM_CCxChannelCmd                        0x08003845   Thumb Code    34  stm32g4xx_hal_tim.o(i.TIM_CCxChannelCmd)
    TIM_ETR_SetConfig                        0x08003867   Thumb Code    22  stm32g4xx_hal_tim.o(i.TIM_ETR_SetConfig)
    TIM_OC2_SetConfig                        0x08003941   Thumb Code   156  stm32g4xx_hal_tim.o(i.TIM_OC2_SetConfig)
    Tim_set_duty                             0x08003c8d   Thumb Code    52  tim_app.o(i.Tim_set_duty)
    Tim_set_freq                             0x08003cc5   Thumb Code    40  tim_app.o(i.Tim_set_freq)
    UART_AdvFeatureConfig                    0x08003d49   Thumb Code   248  stm32g4xx_hal_uart.o(i.UART_AdvFeatureConfig)
    UART_CheckIdleState                      0x08003e41   Thumb Code   118  stm32g4xx_hal_uart.o(i.UART_CheckIdleState)
    UART_SetConfig                           0x0800403d   Thumb Code   866  stm32g4xx_hal_uart.o(i.UART_SetConfig)
    UART_Start_Receive_DMA                   0x080043c9   Thumb Code   146  stm32g4xx_hal_uart.o(i.UART_Start_Receive_DMA)
    UART_WaitOnFlagUntilTimeout              0x08004469   Thumb Code   190  stm32g4xx_hal_uart.o(i.UART_WaitOnFlagUntilTimeout)
    UART_proc                                0x08004529   Thumb Code    92  uart_app.o(i.UART_proc)
    USART1_IRQHandler                        0x0800459d   Thumb Code    36  stm32g4xx_it.o(i.USART1_IRQHandler)
    UsageFault_Handler                       0x080045cd   Thumb Code     4  stm32g4xx_it.o(i.UsageFault_Handler)
    __0printf                                0x080045d1   Thumb Code    22  printfa.o(i.__0printf)
    __1printf                                0x080045d1   Thumb Code     0  printfa.o(i.__0printf)
    __2printf                                0x080045d1   Thumb Code     0  printfa.o(i.__0printf)
    __c89printf                              0x080045d1   Thumb Code     0  printfa.o(i.__0printf)
    printf                                   0x080045d1   Thumb Code     0  printfa.o(i.__0printf)
    __0vsprintf                              0x080045f1   Thumb Code    30  printfa.o(i.__0vsprintf)
    __1vsprintf                              0x080045f1   Thumb Code     0  printfa.o(i.__0vsprintf)
    __2vsprintf                              0x080045f1   Thumb Code     0  printfa.o(i.__0vsprintf)
    __c89vsprintf                            0x080045f1   Thumb Code     0  printfa.o(i.__0vsprintf)
    vsprintf                                 0x080045f1   Thumb Code     0  printfa.o(i.__0vsprintf)
    __scatterload_copy                       0x0800464d   Thumb Code    14  handlers.o(i.__scatterload_copy)
    __scatterload_null                       0x0800465b   Thumb Code     2  handlers.o(i.__scatterload_null)
    __scatterload_zeroinit                   0x0800465d   Thumb Code    14  handlers.o(i.__scatterload_zeroinit)
    fputc                                    0x08004f29   Thumb Code    22  usart.o(i.fputc)
    lcd_proc                                 0x08004f45   Thumb Code   152  lcd_app.o(i.lcd_proc)
    led_fun                                  0x08005031   Thumb Code    90  led.o(i.led_fun)
    led_proc                                 0x08005099   Thumb Code    96  led.o(i.led_proc)
    main                                     0x08005109   Thumb Code    88  main.o(i.main)
    scheduler_init                           0x0800516d   Thumb Code     8  scheduler.o(i.scheduler_init)
    scheduler_run                            0x08005179   Thumb Code    78  scheduler.o(i.scheduler_run)
    system_init                              0x080051d1   Thumb Code    50  system.o(i.system_init)
    tim_proc                                 0x0800520d   Thumb Code    60  tim_app.o(i.tim_proc)
    UARTPrescTable                           0x08005258   Data          24  stm32g4xx_hal_uart.o(.constdata)
    AHBPrescTable                            0x08005280   Data          16  system_stm32g4xx.o(.constdata)
    APBPrescTable                            0x08005290   Data           8  system_stm32g4xx.o(.constdata)
    ASCII_Table                              0x08005298   Data        4560  lcd.o(.constdata)
    Region$$Table$$Base                      0x08006468   Number         0  anon$$obj.o(Region$$Table)
    Region$$Table$$Limit                     0x08006488   Number         0  anon$$obj.o(Region$$Table)
    uwTick                                   0x20000000   Data           4  stm32g4xx_hal.o(.data)
    uwTickPrio                               0x20000004   Data           4  stm32g4xx_hal.o(.data)
    uwTickFreq                               0x20000008   Data           4  stm32g4xx_hal.o(.data)
    SystemCoreClock                          0x2000000c   Data           4  system_stm32g4xx.o(.data)
    five_time_old                            0x20000010   Data           4  key.o(.data)
    five_time_led_old                        0x20000014   Data           4  key.o(.data)
    pass                                     0x20000018   Data           1  key.o(.data)
    error_count                              0x20000019   Data           1  key.o(.data)
    confirm                                  0x2000001a   Data           1  key.o(.data)
    key_now                                  0x2000001b   Data           1  key.o(.data)
    key_up                                   0x2000001c   Data           1  key.o(.data)
    key_down                                 0x2000001d   Data           1  key.o(.data)
    key_old                                  0x2000001e   Data           1  key.o(.data)
    show_mode                                0x20000020   Data           1  lcd_app.o(.data)
    pass_word                                0x20000021   Data           3  lcd_app.o(.data)
    pass_word_true                           0x20000024   Data           3  lcd_app.o(.data)
    duty                                     0x20000028   Data           2  lcd_app.o(.data)
    Freq                                     0x2000002a   Data           2  lcd_app.o(.data)
    clear_mode                               0x2000002c   Data           1  lcd_app.o(.data)
    uled                                     0x2000002e   Data           8  led.o(.data)
    count                                    0x20000036   Data           2  led.o(.data)
    Rx_finsh_flag                            0x2000003e   Data           1  uart_app.o(.data)
    dat_num                                  0x2000003f   Data           1  uart_app.o(.data)
    task_num                                 0x20000088   Data           1  scheduler.o(.data)
    dummy                                    0x2000008e   Data           2  lcd.o(.data)
    __stdout                                 0x20000090   Data           4  stdout.o(.data)
    htim2                                    0x20000094   Data          76  tim.o(.bss)
    huart1                                   0x200000e0   Data         144  usart.o(.bss)
    hdma_usart1_rx                           0x20000170   Data          96  usart.o(.bss)
    rx_dat                                   0x200001d0   Data          30  uart_app.o(.bss)
    __initial_sp                             0x200005f0   Data           0  startup_stm32g431xx.o(STACK)



==============================================================================

Memory Map of the image

  Image Entry point : 0x080001d9

  Load Region LR_IROM1 (Base: 0x08000000, Size: 0x0000651c, Max: 0x00020000, ABSOLUTE)

    Execution Region ER_IROM1 (Exec base: 0x08000000, Load base: 0x08000000, Size: 0x00006488, Max: 0x00020000, ABSOLUTE)

    Exec Addr    Load Addr    Size         Type   Attr      Idx    E Section Name        Object

    0x08000000   0x08000000   0x000001d8   Data   RO            3    RESET               startup_stm32g431xx.o
    0x080001d8   0x080001d8   0x00000000   Code   RO         4343  * .ARM.Collect$$$$00000000  mc_w.l(entry.o)
    0x080001d8   0x080001d8   0x00000004   Code   RO         4610    .ARM.Collect$$$$00000001  mc_w.l(entry2.o)
    0x080001dc   0x080001dc   0x00000004   Code   RO         4613    .ARM.Collect$$$$00000004  mc_w.l(entry5.o)
    0x080001e0   0x080001e0   0x00000000   Code   RO         4615    .ARM.Collect$$$$00000008  mc_w.l(entry7b.o)
    0x080001e0   0x080001e0   0x00000000   Code   RO         4617    .ARM.Collect$$$$0000000A  mc_w.l(entry8b.o)
    0x080001e0   0x080001e0   0x00000008   Code   RO         4618    .ARM.Collect$$$$0000000B  mc_w.l(entry9a.o)
    0x080001e8   0x080001e8   0x00000000   Code   RO         4620    .ARM.Collect$$$$0000000D  mc_w.l(entry10a.o)
    0x080001e8   0x080001e8   0x00000000   Code   RO         4622    .ARM.Collect$$$$0000000F  mc_w.l(entry11a.o)
    0x080001e8   0x080001e8   0x00000004   Code   RO         4611    .ARM.Collect$$$$00002712  mc_w.l(entry2.o)
    0x080001ec   0x080001ec   0x00000024   Code   RO            4    .text               startup_stm32g431xx.o
    0x08000210   0x08000210   0x00000062   Code   RO         4346    .text               mc_w.l(uldiv.o)
    0x08000272   0x08000272   0x00000024   Code   RO         4348    .text               mc_w.l(memseta.o)
    0x08000296   0x08000296   0x0000002c   Code   RO         4625    .text               mc_w.l(uidiv.o)
    0x080002c2   0x080002c2   0x0000001e   Code   RO         4627    .text               mc_w.l(llshl.o)
    0x080002e0   0x080002e0   0x00000020   Code   RO         4629    .text               mc_w.l(llushr.o)
    0x08000300   0x08000300   0x00000000   Code   RO         4631    .text               mc_w.l(iusefp.o)
    0x08000300   0x08000300   0x0000014e   Code   RO         4632    .text               mf_w.l(dadd.o)
    0x0800044e   0x0800044e   0x000000e4   Code   RO         4634    .text               mf_w.l(dmul.o)
    0x08000532   0x08000532   0x000000de   Code   RO         4636    .text               mf_w.l(ddiv.o)
    0x08000610   0x08000610   0x00000030   Code   RO         4638    .text               mf_w.l(dfixul.o)
    0x08000640   0x08000640   0x00000030   Code   RO         4640    .text               mf_w.l(cdrcmple.o)
    0x08000670   0x08000670   0x00000024   Code   RO         4642    .text               mc_w.l(init.o)
    0x08000694   0x08000694   0x00000024   Code   RO         4644    .text               mc_w.l(llsshr.o)
    0x080006b8   0x080006b8   0x000000ba   Code   RO         4646    .text               mf_w.l(depilogue.o)
    0x08000772   0x08000772   0x00000004   Code   RO          448    i.BusFault_Handler  stm32g4xx_it.o
    0x08000776   0x08000776   0x00000002   PAD
    0x08000778   0x08000778   0x00000010   Code   RO          449    i.DMA1_Channel1_IRQHandler  stm32g4xx_it.o
    0x08000788   0x08000788   0x00000044   Code   RO         2849    i.DMA_CalcDMAMUXChannelBaseAndMask  stm32g4xx_hal_dma.o
    0x080007cc   0x080007cc   0x00000024   Code   RO         2850    i.DMA_CalcDMAMUXRequestGenBaseAndMask  stm32g4xx_hal_dma.o
    0x080007f0   0x080007f0   0x00000040   Code   RO         2851    i.DMA_SetConfig     stm32g4xx_hal_dma.o
    0x08000830   0x08000830   0x00000002   Code   RO          450    i.DebugMon_Handler  stm32g4xx_it.o
    0x08000832   0x08000832   0x0000001e   Code   RO         4132    i.Delay_LCD         lcd.o
    0x08000850   0x08000850   0x00000006   Code   RO           13    i.Error_Handler     main.o
    0x08000856   0x08000856   0x00000002   PAD
    0x08000858   0x08000858   0x00000084   Code   RO         3835    i.Five_second_proc  key.o
    0x080008dc   0x080008dc   0x00000076   Code   RO         2852    i.HAL_DMA_Abort     stm32g4xx_hal_dma.o
    0x08000952   0x08000952   0x00000094   Code   RO         2853    i.HAL_DMA_Abort_IT  stm32g4xx_hal_dma.o
    0x080009e6   0x080009e6   0x000000fe   Code   RO         2857    i.HAL_DMA_IRQHandler  stm32g4xx_hal_dma.o
    0x08000ae4   0x08000ae4   0x000000d0   Code   RO         2858    i.HAL_DMA_Init      stm32g4xx_hal_dma.o
    0x08000bb4   0x08000bb4   0x000000c2   Code   RO         2862    i.HAL_DMA_Start_IT  stm32g4xx_hal_dma.o
    0x08000c76   0x08000c76   0x00000002   PAD
    0x08000c78   0x08000c78   0x00000028   Code   RO         1963    i.HAL_Delay         stm32g4xx_hal.o
    0x08000ca0   0x08000ca0   0x000001d8   Code   RO         2714    i.HAL_GPIO_Init     stm32g4xx_hal_gpio.o
    0x08000e78   0x08000e78   0x00000010   Code   RO         2716    i.HAL_GPIO_ReadPin  stm32g4xx_hal_gpio.o
    0x08000e88   0x08000e88   0x0000000a   Code   RO         2718    i.HAL_GPIO_WritePin  stm32g4xx_hal_gpio.o
    0x08000e92   0x08000e92   0x00000002   PAD
    0x08000e94   0x08000e94   0x0000000c   Code   RO         1967    i.HAL_GetTick       stm32g4xx_hal.o
    0x08000ea0   0x08000ea0   0x00000018   Code   RO         1970    i.HAL_IncTick       stm32g4xx_hal.o
    0x08000eb8   0x08000eb8   0x0000001e   Code   RO         1971    i.HAL_Init          stm32g4xx_hal.o
    0x08000ed6   0x08000ed6   0x00000002   PAD
    0x08000ed8   0x08000ed8   0x00000058   Code   RO         1972    i.HAL_InitTick      stm32g4xx_hal.o
    0x08000f30   0x08000f30   0x00000044   Code   RO          536    i.HAL_MspInit       stm32g4xx_hal_msp.o
    0x08000f74   0x08000f74   0x00000028   Code   RO         3121    i.HAL_NVIC_EnableIRQ  stm32g4xx_hal_cortex.o
    0x08000f9c   0x08000f9c   0x0000007a   Code   RO         3127    i.HAL_NVIC_SetPriority  stm32g4xx_hal_cortex.o
    0x08001016   0x08001016   0x00000002   PAD
    0x08001018   0x08001018   0x00000028   Code   RO         3128    i.HAL_NVIC_SetPriorityGrouping  stm32g4xx_hal_cortex.o
    0x08001040   0x08001040   0x00000118   Code   RO          561    i.HAL_PWREx_ControlVoltageScaling  stm32g4xx_hal_pwr_ex.o
    0x08001158   0x08001158   0x00000014   Code   RO          573    i.HAL_PWREx_DisableUCPDDeadBattery  stm32g4xx_hal_pwr_ex.o
    0x0800116c   0x0800116c   0x00000370   Code   RO         2321    i.HAL_RCCEx_PeriphCLKConfig  stm32g4xx_hal_rcc_ex.o
    0x080014dc   0x080014dc   0x00000224   Code   RO         2191    i.HAL_RCC_ClockConfig  stm32g4xx_hal_rcc.o
    0x08001700   0x08001700   0x0000000c   Code   RO         2197    i.HAL_RCC_GetHCLKFreq  stm32g4xx_hal_rcc.o
    0x0800170c   0x0800170c   0x00000024   Code   RO         2199    i.HAL_RCC_GetPCLK1Freq  stm32g4xx_hal_rcc.o
    0x08001730   0x08001730   0x00000024   Code   RO         2200    i.HAL_RCC_GetPCLK2Freq  stm32g4xx_hal_rcc.o
    0x08001754   0x08001754   0x00000098   Code   RO         2201    i.HAL_RCC_GetSysClockFreq  stm32g4xx_hal_rcc.o
    0x080017ec   0x080017ec   0x00000568   Code   RO         2204    i.HAL_RCC_OscConfig  stm32g4xx_hal_rcc.o
    0x08001d54   0x08001d54   0x00000034   Code   RO         3132    i.HAL_SYSTICK_Config  stm32g4xx_hal_cortex.o
    0x08001d88   0x08001d88   0x000000b8   Code   RO         1569    i.HAL_TIMEx_MasterConfigSynchronization  stm32g4xx_hal_tim_ex.o
    0x08001e40   0x08001e40   0x0000006e   Code   RO          802    i.HAL_TIM_Base_Init  stm32g4xx_hal_tim.o
    0x08001eae   0x08001eae   0x00000002   PAD
    0x08001eb0   0x08001eb0   0x0000002c   Code   RO          353    i.HAL_TIM_Base_MspInit  tim.o
    0x08001edc   0x08001edc   0x00000130   Code   RO          811    i.HAL_TIM_ConfigClockSource  stm32g4xx_hal_tim.o
    0x0800200c   0x0800200c   0x00000054   Code   RO          354    i.HAL_TIM_MspPostInit  tim.o
    0x08002060   0x08002060   0x00000168   Code   RO          874    i.HAL_TIM_PWM_ConfigChannel  stm32g4xx_hal_tim.o
    0x080021c8   0x080021c8   0x0000006e   Code   RO          877    i.HAL_TIM_PWM_Init  stm32g4xx_hal_tim.o
    0x08002236   0x08002236   0x00000002   Code   RO          879    i.HAL_TIM_PWM_MspInit  stm32g4xx_hal_tim.o
    0x08002238   0x08002238   0x0000014c   Code   RO          882    i.HAL_TIM_PWM_Start  stm32g4xx_hal_tim.o
    0x08002384   0x08002384   0x0000004e   Code   RO         3681    i.HAL_UARTEx_DisableFifoMode  stm32g4xx_hal_uart_ex.o
    0x080023d2   0x080023d2   0x00000066   Code   RO         3686    i.HAL_UARTEx_ReceiveToIdle_DMA  stm32g4xx_hal_uart_ex.o
    0x08002438   0x08002438   0x00000014   Code   RO         4061    i.HAL_UARTEx_RxEventCallback  uart_app.o
    0x0800244c   0x0800244c   0x00000002   Code   RO         3688    i.HAL_UARTEx_RxFifoFullCallback  stm32g4xx_hal_uart_ex.o
    0x0800244e   0x0800244e   0x0000005e   Code   RO         3689    i.HAL_UARTEx_SetRxFifoThreshold  stm32g4xx_hal_uart_ex.o
    0x080024ac   0x080024ac   0x0000005e   Code   RO         3690    i.HAL_UARTEx_SetTxFifoThreshold  stm32g4xx_hal_uart_ex.o
    0x0800250a   0x0800250a   0x00000002   Code   RO         3692    i.HAL_UARTEx_TxFifoEmptyCallback  stm32g4xx_hal_uart_ex.o
    0x0800250c   0x0800250c   0x00000002   Code   RO         3693    i.HAL_UARTEx_WakeupCallback  stm32g4xx_hal_uart_ex.o
    0x0800250e   0x0800250e   0x00000002   Code   RO         3281    i.HAL_UART_ErrorCallback  stm32g4xx_hal_uart.o
    0x08002510   0x08002510   0x00000308   Code   RO         3284    i.HAL_UART_IRQHandler  stm32g4xx_hal_uart.o
    0x08002818   0x08002818   0x00000078   Code   RO         3285    i.HAL_UART_Init     stm32g4xx_hal_uart.o
    0x08002890   0x08002890   0x000000e0   Code   RO          401    i.HAL_UART_MspInit  usart.o
    0x08002970   0x08002970   0x00000002   Code   RO         3292    i.HAL_UART_RxCpltCallback  stm32g4xx_hal_uart.o
    0x08002972   0x08002972   0x00000002   Code   RO         3293    i.HAL_UART_RxHalfCpltCallback  stm32g4xx_hal_uart.o
    0x08002974   0x08002974   0x000000d6   Code   RO         3294    i.HAL_UART_Transmit  stm32g4xx_hal_uart.o
    0x08002a4a   0x08002a4a   0x00000002   Code   RO         3297    i.HAL_UART_TxCpltCallback  stm32g4xx_hal_uart.o
    0x08002a4c   0x08002a4c   0x00000004   Code   RO          451    i.HardFault_Handler  stm32g4xx_it.o
    0x08002a50   0x08002a50   0x00000164   Code   RO         3836    i.Key_proc          key.o
    0x08002bb4   0x08002bb4   0x00000044   Code   RO         3837    i.Key_read          key.o
    0x08002bf8   0x08002bf8   0x00000030   Code   RO         4133    i.LCD_BusIn         lcd.o
    0x08002c28   0x08002c28   0x00000030   Code   RO         4134    i.LCD_BusOut        lcd.o
    0x08002c58   0x08002c58   0x00000026   Code   RO         4135    i.LCD_Clear         lcd.o
    0x08002c7e   0x08002c7e   0x00000002   PAD
    0x08002c80   0x08002c80   0x000000c4   Code   RO         4137    i.LCD_CtrlLinesConfig  lcd.o
    0x08002d44   0x08002d44   0x00000028   Code   RO         4138    i.LCD_DisplayChar   lcd.o
    0x08002d6c   0x08002d6c   0x0000002c   Code   RO         4141    i.LCD_DisplayStringLine  lcd.o
    0x08002d98   0x08002d98   0x0000006c   Code   RO         4142    i.LCD_DrawChar      lcd.o
    0x08002e04   0x08002e04   0x00000038   Code   RO         4148    i.LCD_Init          lcd.o
    0x08002e3c   0x08002e3c   0x000000ac   Code   RO         4151    i.LCD_ReadReg       lcd.o
    0x08002ee8   0x08002ee8   0x00000010   Code   RO         4152    i.LCD_SetBackColor  lcd.o
    0x08002ef8   0x08002ef8   0x00000018   Code   RO         4153    i.LCD_SetCursor     lcd.o
    0x08002f10   0x08002f10   0x00000010   Code   RO         4155    i.LCD_SetTextColor  lcd.o
    0x08002f20   0x08002f20   0x00000078   Code   RO         4158    i.LCD_WriteRAM      lcd.o
    0x08002f98   0x08002f98   0x00000078   Code   RO         4159    i.LCD_WriteRAM_Prepare  lcd.o
    0x08003010   0x08003010   0x00000090   Code   RO         4160    i.LCD_WriteReg      lcd.o
    0x080030a0   0x080030a0   0x00000032   Code   RO         3912    i.LCD_printf        lcd_app.o
    0x080030d2   0x080030d2   0x00000002   PAD
    0x080030d4   0x080030d4   0x00000050   Code   RO          325    i.MX_DMA_Init       dma.o
    0x08003124   0x08003124   0x00000114   Code   RO          203    i.MX_GPIO_Init      gpio.o
    0x08003238   0x08003238   0x000000a8   Code   RO          355    i.MX_TIM2_Init      tim.o
    0x080032e0   0x080032e0   0x0000008c   Code   RO          402    i.MX_USART1_UART_Init  usart.o
    0x0800336c   0x0800336c   0x00000004   Code   RO          452    i.MemManage_Handler  stm32g4xx_it.o
    0x08003370   0x08003370   0x00000004   Code   RO          453    i.NMI_Handler       stm32g4xx_it.o
    0x08003374   0x08003374   0x00000002   Code   RO          454    i.PendSV_Handler    stm32g4xx_it.o
    0x08003376   0x08003376   0x00000002   PAD
    0x08003378   0x08003378   0x00000068   Code   RO         2205    i.RCC_GetSysClockFreqFromPLLSource  stm32g4xx_hal_rcc.o
    0x080033e0   0x080033e0   0x00000120   Code   RO         4161    i.REG_8230_Init     lcd.o
    0x08003500   0x08003500   0x00000200   Code   RO         4162    i.REG_932X_Init     lcd.o
    0x08003700   0x08003700   0x00000002   Code   RO          455    i.SVC_Handler       stm32g4xx_it.o
    0x08003702   0x08003702   0x00000008   Code   RO          456    i.SysTick_Handler   stm32g4xx_it.o
    0x0800370a   0x0800370a   0x00000068   Code   RO           14    i.SystemClock_Config  main.o
    0x08003772   0x08003772   0x00000002   PAD
    0x08003774   0x08003774   0x00000014   Code   RO         3799    i.SystemInit        system_stm32g4xx.o
    0x08003788   0x08003788   0x000000bc   Code   RO          895    i.TIM_Base_SetConfig  stm32g4xx_hal_tim.o
    0x08003844   0x08003844   0x00000022   Code   RO          896    i.TIM_CCxChannelCmd  stm32g4xx_hal_tim.o
    0x08003866   0x08003866   0x00000016   Code   RO          906    i.TIM_ETR_SetConfig  stm32g4xx_hal_tim.o
    0x0800387c   0x0800387c   0x00000018   Code   RO          907    i.TIM_ITRx_SetConfig  stm32g4xx_hal_tim.o
    0x08003894   0x08003894   0x000000ac   Code   RO          908    i.TIM_OC1_SetConfig  stm32g4xx_hal_tim.o
    0x08003940   0x08003940   0x000000b4   Code   RO          909    i.TIM_OC2_SetConfig  stm32g4xx_hal_tim.o
    0x080039f4   0x080039f4   0x000000b4   Code   RO          910    i.TIM_OC3_SetConfig  stm32g4xx_hal_tim.o
    0x08003aa8   0x08003aa8   0x000000b4   Code   RO          911    i.TIM_OC4_SetConfig  stm32g4xx_hal_tim.o
    0x08003b5c   0x08003b5c   0x00000070   Code   RO          912    i.TIM_OC5_SetConfig  stm32g4xx_hal_tim.o
    0x08003bcc   0x08003bcc   0x00000070   Code   RO          913    i.TIM_OC6_SetConfig  stm32g4xx_hal_tim.o
    0x08003c3c   0x08003c3c   0x00000026   Code   RO          915    i.TIM_TI1_ConfigInputStage  stm32g4xx_hal_tim.o
    0x08003c62   0x08003c62   0x00000028   Code   RO          917    i.TIM_TI2_ConfigInputStage  stm32g4xx_hal_tim.o
    0x08003c8a   0x08003c8a   0x00000002   PAD
    0x08003c8c   0x08003c8c   0x00000038   Code   RO         4024    i.Tim_set_duty      tim_app.o
    0x08003cc4   0x08003cc4   0x0000002c   Code   RO         4025    i.Tim_set_freq      tim_app.o
    0x08003cf0   0x08003cf0   0x00000058   Code   RO         3694    i.UARTEx_SetNbDataToProcess  stm32g4xx_hal_uart_ex.o
    0x08003d48   0x08003d48   0x000000f8   Code   RO         3299    i.UART_AdvFeatureConfig  stm32g4xx_hal_uart.o
    0x08003e40   0x08003e40   0x00000076   Code   RO         3300    i.UART_CheckIdleState  stm32g4xx_hal_uart.o
    0x08003eb6   0x08003eb6   0x00000018   Code   RO         3301    i.UART_DMAAbortOnError  stm32g4xx_hal_uart.o
    0x08003ece   0x08003ece   0x0000005e   Code   RO         3302    i.UART_DMAError     stm32g4xx_hal_uart.o
    0x08003f2c   0x08003f2c   0x0000006c   Code   RO         3303    i.UART_DMAReceiveCplt  stm32g4xx_hal_uart.o
    0x08003f98   0x08003f98   0x00000022   Code   RO         3305    i.UART_DMARxHalfCplt  stm32g4xx_hal_uart.o
    0x08003fba   0x08003fba   0x00000002   PAD
    0x08003fbc   0x08003fbc   0x0000003c   Code   RO         3311    i.UART_EndRxTransfer  stm32g4xx_hal_uart.o
    0x08003ff8   0x08003ff8   0x00000022   Code   RO         3312    i.UART_EndTransmit_IT  stm32g4xx_hal_uart.o
    0x0800401a   0x0800401a   0x00000020   Code   RO         3313    i.UART_EndTxTransfer  stm32g4xx_hal_uart.o
    0x0800403a   0x0800403a   0x00000002   PAD
    0x0800403c   0x0800403c   0x0000038c   Code   RO         3318    i.UART_SetConfig    stm32g4xx_hal_uart.o
    0x080043c8   0x080043c8   0x000000a0   Code   RO         3319    i.UART_Start_Receive_DMA  stm32g4xx_hal_uart.o
    0x08004468   0x08004468   0x000000be   Code   RO         3325    i.UART_WaitOnFlagUntilTimeout  stm32g4xx_hal_uart.o
    0x08004526   0x08004526   0x00000002   PAD
    0x08004528   0x08004528   0x00000074   Code   RO         4062    i.UART_proc         uart_app.o
    0x0800459c   0x0800459c   0x00000030   Code   RO          457    i.USART1_IRQHandler  stm32g4xx_it.o
    0x080045cc   0x080045cc   0x00000004   Code   RO          458    i.UsageFault_Handler  stm32g4xx_it.o
    0x080045d0   0x080045d0   0x00000020   Code   RO         4583    i.__0printf         mc_w.l(printfa.o)
    0x080045f0   0x080045f0   0x00000024   Code   RO         4589    i.__0vsprintf       mc_w.l(printfa.o)
    0x08004614   0x08004614   0x00000010   Code   RO         3134    i.__NVIC_GetPriorityGrouping  stm32g4xx_hal_cortex.o
    0x08004624   0x08004624   0x00000028   Code   RO         3135    i.__NVIC_SetPriority  stm32g4xx_hal_cortex.o
    0x0800464c   0x0800464c   0x0000000e   Code   RO         4650    i.__scatterload_copy  mc_w.l(handlers.o)
    0x0800465a   0x0800465a   0x00000002   Code   RO         4651    i.__scatterload_null  mc_w.l(handlers.o)
    0x0800465c   0x0800465c   0x0000000e   Code   RO         4652    i.__scatterload_zeroinit  mc_w.l(handlers.o)
    0x0800466a   0x0800466a   0x00000002   PAD
    0x0800466c   0x0800466c   0x00000184   Code   RO         4590    i._fp_digits        mc_w.l(printfa.o)
    0x080047f0   0x080047f0   0x000006dc   Code   RO         4591    i._printf_core      mc_w.l(printfa.o)
    0x08004ecc   0x08004ecc   0x00000024   Code   RO         4592    i._printf_post_padding  mc_w.l(printfa.o)
    0x08004ef0   0x08004ef0   0x0000002e   Code   RO         4593    i._printf_pre_padding  mc_w.l(printfa.o)
    0x08004f1e   0x08004f1e   0x0000000a   Code   RO         4595    i._sputc            mc_w.l(printfa.o)
    0x08004f28   0x08004f28   0x0000001c   Code   RO          403    i.fputc             usart.o
    0x08004f44   0x08004f44   0x000000ec   Code   RO         3913    i.lcd_proc          lcd_app.o
    0x08005030   0x08005030   0x00000068   Code   RO         3959    i.led_fun           led.o
    0x08005098   0x08005098   0x00000070   Code   RO         3960    i.led_proc          led.o
    0x08005108   0x08005108   0x00000064   Code   RO           15    i.main              main.o
    0x0800516c   0x0800516c   0x0000000c   Code   RO         4099    i.scheduler_init    scheduler.o
    0x08005178   0x08005178   0x00000058   Code   RO         4100    i.scheduler_run     scheduler.o
    0x080051d0   0x080051d0   0x0000003c   Code   RO         3996    i.system_init       system.o
    0x0800520c   0x0800520c   0x0000004c   Code   RO         4026    i.tim_proc          tim_app.o
    0x08005258   0x08005258   0x00000018   Data   RO         3326    .constdata          stm32g4xx_hal_uart.o
    0x08005270   0x08005270   0x00000010   Data   RO         3696    .constdata          stm32g4xx_hal_uart_ex.o
    0x08005280   0x08005280   0x00000018   Data   RO         3800    .constdata          system_stm32g4xx.o
    0x08005298   0x08005298   0x000011d0   Data   RO         4163    .constdata          lcd.o
    0x08006468   0x08006468   0x00000020   Data   RO         4648    Region$$Table       anon$$obj.o


    Execution Region RW_IRAM1 (Exec base: 0x20000000, Load base: 0x08006488, Size: 0x000005f0, Max: 0x00008000, ABSOLUTE)

    Exec Addr    Load Addr    Size         Type   Attr      Idx    E Section Name        Object

    0x20000000   0x08006488   0x0000000c   Data   RW         1991    .data               stm32g4xx_hal.o
    0x2000000c   0x08006494   0x00000004   Data   RW         3801    .data               system_stm32g4xx.o
    0x20000010   0x08006498   0x0000000f   Data   RW         3838    .data               key.o
    0x2000001f   0x080064a7   0x00000001   PAD
    0x20000020   0x080064a8   0x0000000d   Data   RW         3914    .data               lcd_app.o
    0x2000002d   0x080064b5   0x00000001   PAD
    0x2000002e   0x080064b6   0x0000000b   Data   RW         3961    .data               led.o
    0x20000039   0x080064c1   0x00000001   PAD
    0x2000003a   0x080064c2   0x00000004   Data   RW         4027    .data               tim_app.o
    0x2000003e   0x080064c6   0x00000002   Data   RW         4064    .data               uart_app.o
    0x20000040   0x080064c8   0x00000049   Data   RW         4101    .data               scheduler.o
    0x20000089   0x08006511   0x00000001   PAD
    0x2000008a   0x08006512   0x00000006   Data   RW         4164    .data               lcd.o
    0x20000090   0x08006518   0x00000004   Data   RW         4624    .data               mc_w.l(stdout.o)
    0x20000094        -       0x0000004c   Zero   RW          356    .bss                tim.o
    0x200000e0        -       0x000000f0   Zero   RW          404    .bss                usart.o
    0x200001d0        -       0x0000001e   Zero   RW         4063    .bss                uart_app.o
    0x200001ee   0x0800651c   0x00000002   PAD
    0x200001f0        -       0x00000400   Zero   RW            1    STACK               startup_stm32g431xx.o


==============================================================================

Image component sizes


      Code (inc. data)   RO Data    RW Data    ZI Data      Debug   Object Name

        80          6          0          0          0        806   dma.o
       276         18          0          0          0     629472   gpio.o
       556         78          0         15          0       2416   key.o
      2020         84       4560          6          0      13276   lcd.o
       286         84          0         13          0       2410   lcd_app.o
       216         30          0         11          0       1690   led.o
       210         12          0          0          0     573793   main.o
       100         14          0         73          0       1672   scheduler.o
        36          8        472          0       1024        840   startup_stm32g431xx.o
       194         32          0         12          0       4357   stm32g4xx_hal.o
       310         22          0          0          0      34379   stm32g4xx_hal_cortex.o
      1090         22          0          0          0       6350   stm32g4xx_hal_dma.o
       498         34          0          0          0       2959   stm32g4xx_hal_gpio.o
        68          6          0          0          0        866   stm32g4xx_hal_msp.o
       300         18          0          0          0       1421   stm32g4xx_hal_pwr_ex.o
      2272        108          0          0          0       6996   stm32g4xx_hal_rcc.o
       880          8          0          0          0       1888   stm32g4xx_hal_rcc_ex.o
      2500        236          0          0          0      14150   stm32g4xx_hal_tim.o
       184         26          0          0          0       1404   stm32g4xx_hal_tim_ex.o
      3128         94         24          0          0      34060   stm32g4xx_hal_uart.o
       462         10         16          0          0       6357   stm32g4xx_hal_uart_ex.o
        98         18          0          0          0       5297   stm32g4xx_it.o
        60         10          0          0          0        454   system.o
        20          6         24          4          0       1147   system_stm32g4xx.o
       296         14          0          0         76       2408   tim.o
       176         24          0          4          0       1569   tim_app.o
       136         32          0          2         30       1684   uart_app.o
       392         40          0          0        240       2493   usart.o

    ----------------------------------------------------------------------
     16874       1094       5128        144       1372    1356614   Object Totals
         0          0         32          0          0          0   (incl. Generated)
        30          0          0          4          2          0   (incl. Padding)

    ----------------------------------------------------------------------

      Code (inc. data)   RO Data    RW Data    ZI Data      Debug   Library Member Name

         0          0          0          0          0          0   entry.o
         0          0          0          0          0          0   entry10a.o
         0          0          0          0          0          0   entry11a.o
         8          4          0          0          0          0   entry2.o
         4          0          0          0          0          0   entry5.o
         0          0          0          0          0          0   entry7b.o
         0          0          0          0          0          0   entry8b.o
         8          4          0          0          0          0   entry9a.o
        30          0          0          0          0          0   handlers.o
        36          8          0          0          0         68   init.o
         0          0          0          0          0          0   iusefp.o
        30          0          0          0          0         68   llshl.o
        36          0          0          0          0         68   llsshr.o
        32          0          0          0          0         68   llushr.o
        36          0          0          0          0        108   memseta.o
      2304         96          0          0          0        600   printfa.o
         0          0          0          4          0          0   stdout.o
        44          0          0          0          0         80   uidiv.o
        98          0          0          0          0         92   uldiv.o
        48          0          0          0          0         68   cdrcmple.o
       334          0          0          0          0        148   dadd.o
       222          0          0          0          0        100   ddiv.o
       186          0          0          0          0        176   depilogue.o
        48          0          0          0          0         68   dfixul.o
       228          0          0          0          0         96   dmul.o

    ----------------------------------------------------------------------
      3734        112          0          4          0       1808   Library Totals
         2          0          0          0          0          0   (incl. Padding)

    ----------------------------------------------------------------------

      Code (inc. data)   RO Data    RW Data    ZI Data      Debug   Library Name

      2666        112          0          4          0       1152   mc_w.l
      1066          0          0          0          0        656   mf_w.l

    ----------------------------------------------------------------------
      3734        112          0          4          0       1808   Library Totals

    ----------------------------------------------------------------------

==============================================================================


      Code (inc. data)   RO Data    RW Data    ZI Data      Debug   

     20608       1206       5128        148       1372    1345090   Grand Totals
     20608       1206       5128        148       1372    1345090   ELF Image Totals
     20608       1206       5128        148          0          0   ROM Totals

==============================================================================

    Total RO  Size (Code + RO Data)                25736 (  25.13kB)
    Total RW  Size (RW Data + ZI Data)              1520 (   1.48kB)
    Total ROM Size (Code + RO Data + RW Data)      25884 (  25.28kB)

==============================================================================

