:020000040800F2
:10000000F0050020ED010008713300084D2A0008BA
:100010006D33000873070008CD450008000000009C
:100020000000000000000000000000000137000890
:10003000310800080000000075330008033700088D
:10004000070200080702000807020008070200086C
:10005000070200080702000807020008070200085C
:1000600007020008070200080702000879070008D5
:10007000070200080702000807020008070200083C
:10008000070200080000000007020008070200083D
:10009000070200080702000807020008070200081C
:1000A000070200080702000807020008070200080C
:1000B00007020008070200080702000807020008FC
:1000C00007020008070200080702000807020008EC
:1000D000070200089D450008070200080702000803
:1000E00007020008070200080702000807020008CC
:1000F00007020008070200080702000800000000CD
:1001000000000000070200080000000007020008CD
:1001100007020008000000000702000807020008AC
:10012000070200080702000807020008070200088B
:10013000070200080000000000000000070200089D
:10014000070200080702000800000000000000008D
:10015000000000000000000000000000000000009F
:10016000000000000000000000000000070200087E
:10017000070200080000000000000000000000006E
:10018000000000000702000800000000000000005E
:10019000000000000000000000000000000000005F
:1001A000000000000000000007020008070200082D
:1001B000070200080702000807020008000000000C
:1001C000000000000702000800000000000000001E
:1001D0000702000807020008DFF80CD000F048FA18
:1001E0000048004709510008F005002006488047F4
:1001F00006480047FEE7FEE7FEE7FEE7FEE7FEE70C
:10020000FEE7FEE7FEE7FEE775370008D9010008C4
:100210002DE9F05F0546002092469B46884606463B
:10022000814640241BE0284641464746224600F0CE
:1002300057F853465A46C01A914110D311461846F2
:10024000224600F03EF82D1A67EB01084F46224681
:100250000120002100F035F817EB00094E41201E67
:10026000A4F10104DFDC484631462A464346BDE896
:10027000F09FD2B201E000F8012B491EFBD270477B
:100280000022F6E710B513460A4604461946FFF762
:10029000F0FF204610BD30B50B460146002020225D
:1002A000012409E021FA02F59D4205D303FA02F583
:1002B000491B04FA02F52844151EA2F10102F1DCE3
:1002C00030BD202A04DB203A00FA02F100207047FA
:1002D0009140C2F1200320FA03F319439040704784
:1002E000202A04DB203A21FA02F00021704721FA8B
:1002F00002F3D040C2F120029140084319467047F2
:100300002DE9FE4F804681EA0300C00F0C460090A5
:1003100021F0004123F00045B8EB0200A94105D2CD
:100320004046214690461C460B46024623F00040BC
:10033000104347D0270DC7F30A00C3F30A510290B8
:10034000401A019040286BDAC3F3130040F4801B7D
:100350000098924620B10023D2EB030A63EB0B0B0B
:1003600001985946C0F140025046FFF7AAFF0646E1
:100370000D4650465946019A00F08CF910EB0800E2
:100380006141002487EA115284EAE7731A4340D09E
:10039000009A62B3019A012A4FEA075215DC001B4A
:1003A00061EB02014FF0004202EA0752CDE9004240
:1003B000001C41F5801132462B4600F08CF903B049
:1003C000BDE8F08F40462146F9E7001B61EB0201D2
:1003D000001C41F5801300185B412018A2F500179E
:1003E00047EB030140EAD570B6196D4111E06D0885
:1003F0004FEA360645EAC0754FEA0752001B61EB2B
:100400000201001C41F5801149084FEA3000001933
:10041000514132462B4603B0BDE8F04F00F04CB9D5
:100420000098012240000023D0EB020263EBE0734E
:10043000009821464FEAE074B8EB000061EB04013C
:10044000E9E783F000435BE781F0004158E72DE9DD
:10045000FE4F81EA030404F0004421F000410094BF
:100460004FF0000B23F0004350EA01045ED052EA43
:1004700003045BD0C3F30A54C1F30A552C44A4F21D
:10048000F3340194A0FB0254C1F3130141F4801131
:10049000C3F3130343F4801301FB024400FB034E38
:1004A000840A970A44EA815447EA8357A4FB076801
:1004B00002958D0A05FB07854FEA932C04FB0C542B
:1004C0002705029D4FEA065847EA1637B5EB08059F
:1004D0006EEB070C870E920E47EA811742EA8312F1
:1004E000A7FB0201B6EB0B0164EB00042B0D43EA02
:1004F0000C335E1844EB1C50DA465146E7FB020110
:10050000C5F313044FEA0B3343EA14534FEA0432A2
:10051000019C43EA0603A4F10C040294009CCDE97B
:1005200000B400F0D8F803B0BDE8F08F0020014619
:10053000F9E72DE9F04D81EA030404F0004B21F0C6
:10054000004514464FF0000A23F0004150EA05022E
:1005500020D054EA01021DD0C5F30A570246C5F364
:100560001303C1F31300C1F30A5640F4801543F49A
:100570008013A7EB0608101BD64608F2FD3873EB74
:10058000050002D308F1010801E092185B41B8F1BF
:10059000000F03DA00200146BDE8F08D00204FF483
:1005A0008011064684460EE0171B73EB050705D342
:1005B000121B63EB050306434CEA010C49084FEAA2
:1005C000300092185B4150EA0107EDD152EA030076
:1005D00012D082EA040083EA0501084305D0101B0B
:1005E000AB4106D20122002306E000224FF0004377
:1005F00002E06FF0010253101AEB06004CEB0851B9
:1006000010EB0A0041EB0B01BDE8F04D00F054B8CF
:10061000C1F30A52C1F3130140F2FF3341F48011D8
:100620009A4202DA00200146704740F233439A4270
:10063000A2F2334202DC5242FFF752BEFFF741BE44
:1006400030B5041E71F1000404DB4FF00044404259
:1006500064EB0101141E73F1000405DB1C464FF02E
:100660000043524263EB0403994208BF904230BDFD
:10067000064C074D06E0E06840F0010394E80700EF
:1006800098471034AC42F6D3FFF7AAFD686400081F
:1006900088640008202A06DBCB17203A41FA02F0D2
:1006A00043EAE07306E041FA02F3D040C2F12002CF
:1006B000914008431946704710B5141E73F10004A9
:1006C00008DA401C41F1000192185B411A4301D144
:1006D00020F0010010BD2DE9F04D92469B4611B16E
:1006E000B1FA81F202E0B0FA80F220329046FFF7D0
:1006F000E8FD04460F4640EA0A0041EA0B01534672
:100700005A46084313D0114653EA010019D0C8F1E4
:1007100040025046FFF7E4FD05460E465046594656
:100720004246FFF7CEFD084305D0012004E02046F5
:100730003946BDE8F08D0020054346EAE0762C43BB
:1007400037430A986305E40AA0EB08000022FD0A7B
:1007500044EA47540A3002D500200146E9E7010582
:1007600010196941DDE9084500196941BDE8F04DFE
:10077000A2E700BFFEE7000010B5024800F033F921
:1007800010BD00007001002030B50E4D0468AC4271
:1007900001D20D4901E00C4920310B460478083C98
:1007A0001425B4FBF5F2446CA40803EB84048464C0
:1007B000054C8034C46402F01F050124AC4004657C
:1007C00030BD0000080402400008024001794A1EC2
:1007D000064B03EB82024265044A403282654A1EA0
:1007E00002F01F0301229A40C265704700090240CF
:1007F00030B5D0E913546C60446D14B1D0E916548F
:100800006C6090F8444004F01F050124AC40056C76
:100810006C60046863608468102C04D10468A26072
:100820000468E16003E00468A1600468E26030BD30
:100830007047002109E0002201E0531C9AB240F603
:10084000B8339A42F9DB4B1C99B28142F3DB704713
:1008500072B600BFFEE7000010B519480078012805
:1008600028D100F017FB04461648006841F2883191
:100870000844844213D34FF47A701349088032201D
:100880001249088000200E49087000BF04E0402192
:100890000F4A1154411CC8B20328F8DB09E04FF499
:1008A000FA60094908800A2008490880012009499E
:1008B000087004E00020084908700649087010BD5F
:1008C00018000020100000202A000020280000202E
:1008D000210000202E0000202000002001460020E2
:1008E00091F82520022A03D00422CA63012027E0C0
:1008F0000A68126822F00E020B681A608A6C12688D
:1009000022F480728B6C1A600A68126822F001026D
:100910000B681A6091F8442002F01F0301229A40EC
:100920000B6C5A60D1E913325A604A6D42B14A6D7C
:10093000126822F480724B6D1A60D1E916325A6047
:10094000012281F8252000BF002281F8242000BF69
:10095000704770B50446002594F8250002280BD096
:100960000420E063012084F8250000BF002084F803
:10097000240000BF012534E02068006820F00E004C
:10098000216808602068006820F001002168086084
:10099000A06C006820F48070A16C086094F844009A
:1009A00000F01F0101208840216C4860D4E9131039
:1009B0004860606D40B1606D006820F48070616DCA
:1009C0000860D4E916104860012084F8250000BFB3
:1009D000002084F8240000BFA06B10B12046A16B5A
:1009E0008847284670BD70B50446206C05682068AD
:1009F000066894F8440000F01F0104208840284055
:100A0000E0B106F00400C8B12068006800F02000E2
:100A100028B92068006820F004002168086094F874
:100A2000440000F01F0104208840216C4860206BC6
:100A3000002856D02046216B884752E094F84400A5
:100A400000F01F0102208840284018B306F0020081
:100A500000B32068006800F0200040B920680068FA
:100A600020F00A0021680860012084F8250094F82D
:100A7000440000F01F0102208840216C486000BF44
:100A8000002084F8240000BFE06A50B32046E16AE9
:100A9000884726E094F8440000F01F0108208840B1
:100AA0002840F0B106F00800D8B12068006820F0B6
:100AB0000E002168086094F8440000F01F01012036
:100AC0008840216C48600120E06384F8250000BF65
:100AD000002084F8240000BF606B10B12046616BD9
:100AE000884770BD70B504460CB9012070BD2F4910
:100AF000206888420BD22E492068401A1421B0FB8E
:100B0000F1F0800060642A48083820640AE0274930
:100B10002068401A1421B0FBF1F080006064234883
:100B200008382064022084F825002068056847F60C
:100B3000F0708543D4E902010843216908436169E3
:100B40000843A1690843E1690843216A0843054352
:100B5000206805602046FFF717FEA068B0F5804FBB
:100B600001D1002060602079A16C0860D4E91310E5
:100B70004860606860B16068042809D82046FFF7C3
:100B800025FE0020616D0860D4E91610486003E07E
:100B900000206065A065E0650020E063012084F826
:100BA0002500002084F8240000BF9FE708040240CD
:100BB000080002402DE9F04104460D4616461F4646
:100BC0004FF0000800BF94F82400012802D1022051
:100BD000BDE8F081012084F8240000BF94F82500CE
:100BE00001283FD1022084F825000020E06320681E
:100BF000006820F00100216808603B463246294623
:100C00002046FFF7F5FD206B30B12068006840F00A
:100C10000E00216808600BE02068006820F00400E6
:100C2000216808602068006840F00A0021680860B8
:100C3000A06C006800F4803028B1A06C006840F41B
:100C40008070A16C0860606D28B1606D006840F430
:100C50008070616D08602068006840F001002168C4
:100C6000086006E000BF002084F8240000BF4FF0B9
:100C700002084046ACE7000070B5044600F00AF9EF
:100C800006462546681C10B104480068054400BFAC
:100C900000F000F9801BA842FAD370BD08000020C4
:100CA00078B503460022D0E0012696400D6805EA9B
:100CB0000604002C72D04D68012D08D04D68022D1D
:100CC00005D04D68112D02D04D68122D13D19868B2
:100CD00056000325B540A8435600CD68B5402843CB
:100CE0009860586801259540A8430D79C5F3001513
:100CF000954028435860D86856000325B540A8435E
:100D000056008D68B5402843D8604D68022D02D04A
:100D10004D68122D13D1D60803F1200555F8260091
:100D20005507EE0E0F25B540A8435607F60E0D6980
:100D3000B5402843D60803F1200545F82600186879
:100D400056000325B540A8430D7905F0030556006C
:100D5000B540284318604D6805F08055B5F1805FB7
:100D600072D100BF3C4D2D6E45F001053A4E3566FF
:100D700035462D6E05F00105009500BF00BF4FEA16
:100D8000B635960855F8260095072E0F0F25B54065
:100D9000A843B3F1904F02D100251AE054E02F4D43
:100DA000AB4201D1012514E02D4DAB4201D102250A
:100DB0000FE02C4DAB4201D103250AE02A4DAB4296
:100DC00001D1042505E0294DAB4201D1052500E004
:100DD00006259607360FB5402843254D960845F859
:100DE0002600244D2868A0434D6805F48035B5F5EC
:100DF000803F00D120431F4D28602D1D2868A0434F
:100E00004D6805F40035B5F5003F00D12043194D7C
:100E10002D1D28602D1D2868A0434D6805F4801500
:100E2000B5F5801F00D12043124D083528602D1DD7
:100E30002868A0434D6805F40015B5F5001F00D1E2
:100E400020430C4D0C352860521C0D68D540002DF8
:100E50007FF42AAF78BD0000001002400004004873
:100E600000080048000C004800100048001400482A
:100E70000800014000040140024613690B400BB119
:100E8000012000E0002070470AB1816100E081622A
:100E90007047000001480068704700000000002013
:100EA000034800680349096808440149086070471D
:100EB000000000200800002010B50024032000F0EE
:100EC000ABF80F2000F008F808B1012401E000F0B1
:100ED0002FF8204610BD000070B5044600251148CB
:100EE0000068D8B10F4800684FF47A71B1FBF0F098
:100EF0000D490968B1FBF0F6304600F02BFF58B9F8
:100F0000102C07D200222146501E00F047F8074857
:100F1000046004E0012502E0012500E001252846E7
:100F200070BD0000080000200C000020040000201C
:100F300008B500BF0E48006E40F001000C4908667D
:100F40000846006E00F00100009000BF00BF00BF27
:100F50000846806D40F0805088650846806D00F03E
:100F60008050009000BF00BF00F0F6F808BD000000
:100F7000001002400146084600280DDB00BF00BFFC
:100F800000F01F0301229A4043099B0003F1E02374
:100F9000C3F8002100BF00BF00BF70472DE9F05F1C
:100FA00080460D46164603F035FB074639462A466D
:100FB000334601F00700C0F1070ABAF1040F02D965
:100FC0004FF0040A01E0C0F1070AD14600F1040A1B
:100FD000BAF1070F02D24FF0000A01E0A0F1030AB4
:100FE000D4464FF0010A0AFA09FAAAF1010A0AEAFC
:100FF000020A0AFA0CFA4FF0010B0BFA0CFBABF1E8
:10100000010B0BEA030B4AEA0B042146404603F0AE
:1010100009FBBDE8F09F000000BF00F00702064B8F
:1010200019684FF6FF031940044B0B4343EA0221B2
:10103000014B196000BF70470CED00E00000FA059D
:1010400002468ABB4148006800F4C060B0F5806F7A
:101050002BD13E488030006820F480703B4BC3F8B1
:1010600080001846006820F4C06040F400701860EA
:101070003748006832235843364BB0FBF3F0411C2D
:1010800000E0491E3148406900F48060B0F5806F8F
:1010900001D10029F5D12D48406900F48060B0F5F8
:1010A000806F51D10320704708E0284880300068E5
:1010B00020F48070254BC3F8800045E0B2F5007F36
:1010C0003AD12248006800F4C060B0F5806F2AD1A0
:1010D0001E488030006840F480701C4BC3F88000CC
:1010E0001846006820F4C06040F40070186018488A
:1010F000006832235843174BB0FBF3F0411C00E06B
:10110000491E1248406900F48060B0F5806F01D13B
:101110000029F5D10D48406900F48060B0F5806F7A
:1011200012D10320BFE709488030006840F4807086
:10113000064BC3F8800007E00448006820F4C06054
:1011400040F48060014B18600020ACE70070004064
:101150000C00002040420F000348806840F48040AB
:101160000149886070470000007000402DE9F84395
:1011700004460027B846206800F40020B0F5002F90
:1011800073D1B946D348806D00F0805078B900BF64
:10119000D048806D40F08050CE4988650846806D0B
:1011A00000F08050009000BF00BF4FF00109CA4816
:1011B000006840F48070C8490860FFF76BFE06467F
:1011C00006E0FFF767FE801B022801D9032705E030
:1011D000C148006800F480700028F2D000BF002FE2
:1011E00046D1BC489030006800F44075CDB1206C09
:1011F000A84216D0B7489030006820F44075B54832
:10120000D0F8900040F48030B249C1F89000084610
:10121000D0F8900020F48030C1F890000846C0F863
:10122000905005F00100A0B1FFF734FE064608E03B
:10123000FFF730FE801B41F28831884201D9032735
:1012400006E0A4489030006800F002000028EFD0CB
:1012500000BF5FB99F489030006820F44070216C57
:1012600008439C49C1F8900003E00CE0B84600E058
:10127000B846B9F1010F05D19648806D20F0805035
:101280009449886500BF207800F0010048B191487A
:101290008830006820F00300616808438D49C1F878
:1012A0008800207800F00200022809D1894888309F
:1012B000006820F00C00A16808438649C1F8880046
:1012C000207800F00400042809D1824888300068A2
:1012D00020F03000E16808437E49C1F8880020789A
:1012E00000F00800082809D17A488830006820F00A
:1012F000C000216908437749C1F88800207800F0D0
:101300002000202809D173488830006820F440600C
:10131000616908436F49C1F88800207800F04000F7
:10132000402809D16B488830006820F44050A169FA
:1013300008436849C1F88800207800F080008028C0
:1013400009D164488830006820F44040E1690843CE
:101350006049C1F88800208800F48070B0F5807F73
:1013600009D15C488830006820F44030216A084385
:101370005849C1F88800208800F40070B0F5007F5B
:1013800009D154488830006820F44020616A08433D
:101390005049C1F88800208800F48060B0F5806F63
:1013A00013D14C488830006820F44010A16A0843EB
:1013B000484988310860A06AB0F5801F05D14548CA
:1013C000C06840F480104349C860208800F4006081
:1013D000B0F5006F13D13F488830006820F440001A
:1013E000E16A08433B4988310860E06AB0F5800F44
:1013F00005D13848C06840F480103649C86020885C
:1014000000F48050B0F5805F13D132488830006816
:1014100020F04070216B08432E4988310860206B12
:10142000B0F1807F05D12B48C06840F48010294975
:10143000C860208800F40050B0F5005F13D1254843
:101440008830006820F04060616B08432149883192
:101450000860606BB0F1006F05D11E48C06840F4B1
:1014600080101C49C860208800F48040B0F5804F8F
:1014700013D118488830006820F04060A16B084301
:10148000144988310860A06BB0F1006F05D1114894
:10149000C06840F480100F49C860208800F4004004
:1014A000B0F5004F13D10B488830006820F0405051
:1014B000E16B0843074988310860E06BB0F1805F59
:1014C00005D10448C06840F480300249C8604046F5
:1014D000BDE8F88300100240007000402DE9F041A3
:1014E00004460D464FF0000814B90120BDE8F08114
:1014F0007D48006800F00F00A8420ED27A480068CC
:1015000020F00F002843784908600846006800F082
:101510000F00A84201D00120E8E7207800F0010088
:10152000002864D06068032823D17048006800F068
:10153000007008B90120D9E701F01EFF06466C488B
:10154000864237D96948806800F0F00030B12078D1
:1015500000F0020002282DD1A06858BB63488068C3
:1015600020F0F00040F08000604988604FF0800873
:1015700020E06068022806D15C48006800F4003072
:1015800040B90120B2E75948006800F4806008B90A
:101590000120ABE700F0DEF806465548864209D93F
:1015A0005248806820F0F00040F080004F49886089
:1015B0004FF080084D48806820F0030061680843C0
:1015C0004A498860FFF766FC074608E0FFF762FCBF
:1015D000C01B41F28831884201D9032086E7434885
:1015E000806800F00C006168B0EB810FEED12078CC
:1015F00000F00200022820D1207800F00400042826
:1016000005D13A48806840F4E06038498860207825
:1016100000F00800082807D13448806820F46050A2
:1016200040F4E060314988603048806820F0F00084
:10163000A16808432D49886008E0B8F1800F05D102
:101640002A48806820F0F000284988602648006811
:1016500000F00F00A84219D92348006820F00F00BD
:10166000284321490860FFF715FC074608E0FFF70B
:1016700011FCC01B41F28831884201D9032035E7B3
:101680001948006800F00F00A842F0D1207800F05F
:101690000400042807D11548806820F4E060E16860
:1016A000084312498860207800F00800082808D113
:1016B0000E48806820F46050216940EAC1000B495F
:1016C000886000F047F809498968C1F30311094AA5
:1016D000515C01F01F01C8400749086007480068D5
:1016E000FFF7FAFB02E70000002002400010024072
:1016F00000B4C404805200080C0000200400002044
:1017000001480068704700000C00002000B5FFF79A
:10171000F7FF05498968C1F30221044A515C01F0D1
:101720001F01C84000BD0000001002409052000898
:1017300000B5FFF7E5FF05498968C1F3C221044AF6
:10174000515C01F01F01C84000BD000000100240C4
:101750009052000870B5224DAD6805F00C05042DBF
:1017600001D120483AE01E4DAD6805F00C05082D6A
:1017700001D11D4832E01A4DAD6805F00C050C2D65
:101780002BD1174DED6805F00304154DED68C5F339
:1017900003156A1C022C0CD0032C09D1124DB5FB89
:1017A000F2F50F4EF668C6F3062605FB06F10AE0D1
:1017B00000BF0C4DB5FBF2F5094EF668C6F30626E0
:1017C00005FB06F100BF00BF054DED68C5F341659F
:1017D0006D1C6B00B1FBF3F000E0002070BD000059
:1017E000001002400024F40000366E012DE9F84399
:1017F000044614B90120BDE8F883207800F0010008
:10180000002865D0FC48806800F00C07FA48C068E2
:1018100000F003060C2F01D1032E01D0082F0AD1AE
:10182000F548006800F40030002851D060680028B6
:101830004ED10120DFE700BF6068B0F5803F06D1E0
:10184000ED48006840F48030EB4908601AE06068B9
:10185000B0F5A02F0BD1E848006840F48020E6499D
:1018600008600846006840F4803008600AE0E248FA
:10187000006820F48030E04908600846006820F4E1
:101880008020086000BF606888B1FFF703FB054651
:1018900006E0FFF7FFFA401B642801D90320AAE7FE
:1018A000D548006800F400300028F2D010E0FFF7BF
:1018B000F1FA054606E0FFF7EDFA401B642801D96E
:1018C000032098E7CC48006800F400300028F2D1EB
:1018D000207800F00200022860D1C748806800F03C
:1018E0000C07C548C06800F003060C2F01D1022E7A
:1018F00001D0042F18D1C048006800F4806018B1EE
:10190000E06808B9012076E7BB48406820F0FE4057
:10191000217C40EA0160B8494860B8480068FFF798
:10192000DBFA18B3012066E7E06800B3B24800684C
:1019300040F48070B0490860FFF7ACFA054606E055
:10194000FFF7A8FA401B022801D9032053E7AA4851
:10195000006800F480600028F2D0A748406820F0BA
:10196000FE40217C40EA0160A349486016E0A2489D
:10197000006820F48070A0490860FFF78BFA0546E4
:1019800006E0FFF787FA401B022801D9032032E75F
:101990009948006800F480600028F2D1207800F0B7
:1019A0000800082836D16069D0B1934894300068A7
:1019B00040F001009049C1F89400FFF76BFA05462A
:1019C00006E0FFF767FA401B022801D9032012E75F
:1019D00089489430006800F002000028F1D019E036
:1019E00085489430006820F001008349C1F89400D4
:1019F000FFF750FA054606E0FFF74CFA401B0228B5
:101A000001D90320F7E67C489430006800F002001A
:101A10000028F1D1207800F00400042872D14FF0A2
:101A200000087548806D012121EA107078B100BF6F
:101A30007148806D40F080506F4988650846806D20
:101A400000F08050009000BF00BF4FF001086C48CC
:101A5000006800F48070B0B96948006840F4807094
:101A600067490860FFF716FA054606E0FFF712FA25
:101A7000401B022801D90320BDE66148006800F43C
:101A800080700028F2D000BFA068012808D15A4811
:101A90009030006840F001005749C1F8900021E003
:101AA000A06805280FD154489030006840F0040029
:101AB0005149C1F890000846D0F8900040F001006C
:101AC000C1F890000EE04C489030006820F0010012
:101AD0004949C1F890000846D0F8900020F0040071
:101AE000C1F8900000BFA068A8B1FFF7D3F9054680
:101AF00009E0FFF7CFF9401B41F28831884202D953
:101B0000032078E625E03C489030006800F00200B1
:101B10000028EED013E0FFF7BDF9054608E0FFF717
:101B2000B9F9401B41F28831884201D9032062E6AD
:101B300031489030006800F002000028EFD1B8F181
:101B4000010F05D12C48806D20F080502A4988650E
:101B500000BF207800F02000202836D1A069D0B145
:101B600025489830006840F001002349C1F89800EA
:101B7000FFF790F9054606E0FFF78CF9401B0228B5
:101B800001D9032037E61C489830006800F00200B5
:101B90000028F1D019E018489830006820F00100C2
:101BA0001549C1F89800FFF775F9054606E0FFF7FB
:101BB00071F9401B022801D903201CE60E48983019
:101BC000006800F002000028F1D1E069002860D030
:101BD0000948806800F00C000C287FD0E0690228DA
:101BE00058D10548006820F0807003490860FFF76D
:101BF00051F905460DE000000010024004000020ED
:101C000000700040FFF746F9401B022801D903206D
:101C1000F1E54D48006800F000700028F2D1D4E9E9
:101C20000810401E41EA0011A06A41EA0021208EFE
:101C30000122C2EB500041EA40513420005DC2EB6A
:101C4000500041EA40612C20005D41EAC0603E49FD
:101C5000C9683E4A114008433B49C86008460068CD
:101C600040F0807008600846C06840F08070C8602E
:101C7000FFF710F9054606E0FFF70CF9401B0228B4
:101C800001D90320B7E53048006800F00070002853
:101C9000F2D056E02C48006820F080702A49086095
:101CA0000846C06820F00300C8600846C06828499C
:101CB00008402549C860FFF7EDF8054607E00DE04C
:101CC000FFF7E8F8401B022801D9032093E51E48DE
:101CD000006800F000700028F2D132E0E0690128CD
:101CE00000D188E51848C66806F00301206A8142E1
:101CF00025D106F0F001606A401EB1EB001F1ED135
:101D000006F4FE41A06AB1EB002F18D106F078412D
:101D10002C20005DB1EBC06F11D106F4C001208E04
:101D20000122C2EB5000B1EB405F08D106F0C06168
:101D30003420005DC2EB5000B1EB406F01D00120B8
:101D400059E5002057E50000001002400C809F017B
:101D5000FFFFEEFE70B504462546681EB0F1807F99
:101D600001D301200FE0681E4FF0E02148610F21F0
:101D70004FF0FF3002F056FC00204FF0E021886168
:101D800007200861002070BD30B502460B4600BF39
:101D900092F83C00012801D1022030BD012082F8D8
:101DA0003C0000BF022082F83D00106841681068C6
:101DB00084681D4D1068A84203D01C4D1068A842CD
:101DC00003D121F470015868014319480140186893
:101DD000014310684160144D1068A84213D0106888
:101DE000B0F1804F0FD0134D1068A8420BD0124DA8
:101DF0001068A84207D00D4D1068A84203D00F4DBF
:101E00001068A84205D124F0800498680443106843
:101E10008460012082F83D0000BF002082F83C0071
:101E200000BF00BFB9E70000002C014000340140B2
:101E30008FFFFFFD0004004000080040004001400B
:101E400010B504460CB9012010BD94F83D0028B926
:101E5000002084F83C00204600F02AF8022084F894
:101E60003D00211D206801F08FFC012084F848000E
:101E700000BF84F83E0001213F200155402001555C
:101E800041200155422001554320015500BF00BFAC
:101E9000012084F844004520015546200155472083
:101EA000015500BF012084F83D000020CCE7000070
:101EB00008B50168B1F1804F0DD100BF0649896DA9
:101EC00041F00101044A91651146896D01F001015B
:101ED000009100BF00BF08BD001002402DE9F04195
:101EE00004460D4600BF94F83C00012802D10220B0
:101EF000BDE8F081012084F83C0000BF022084F896
:101F00003D00206886683F48064026F47F462068EA
:101F100086602868702824D00CDC00F00F010029AE
:101F200064D10011072861D2DFE800F05354555600
:101F300049353F00344A811A90424FD009DCB0F550
:101F4000805F0DD0B0F5005F18D0B0F1101F4DD1FB
:101F500043E0102943D0202942D0502946D140E007
:101F600045E0D5E902136A68206801F07CFC20682E
:101F7000866846F077062068866038E0D5E9021367
:101F80006A68206801F06FFC2068806840F4804037
:101F9000216888602BE0EA686968206801F04EFEDD
:101FA0005021206801F06AFC21E0EA686968206835
:101FB00001F057FE6021206801F060FC17E0EA683C
:101FC0006968206801F03AFE4021206801F056FC63
:101FD0000DE000BF00BF00BF00BF00BF00BF00BFDB
:101FE00000BF2968206801F049FC00E000BF00BF85
:101FF000012084F83D0000BF002084F83C0000BFB1
:1020000000BF75E788FFCEFF2000100010B586B036
:102010000446142101A8FEF733F92068B0F1804F7F
:102020001AD100BF0D48C06C40F001000B49C864D4
:102030000846C06C00F00100009000BF00BF022005
:10204000019002900020039004900120059001A9C6
:102050004FF09040FEF724FE06B010BD0010024085
:1020600070B504460D46164600BF94F83C000128A2
:1020700001D1022070BD012084F83C0000BF0C2E6D
:1020800051D005DC4EB1042E1ED0082E7AD133E09B
:10209000102E60D0142EF9D175E02946206801F089
:1020A000F9FB2068806940F0080021688861206899
:1020B000806920F0040021688861206880692969AE
:1020C00008432168886177E02946206801F038FCE0
:1020D0002068806940F40060216888612068806918
:1020E00020F480602168886120688069296940EA5D
:1020F0000120216888615FE02946206801F07AFCB0
:102100002068C06940F008002168C8612068C06983
:1021100020F004002168C8612068C069296908436B
:102120002168C86148E02946206801F0BDFC2068AC
:10213000C06940F400602168C8612068C06920F46B
:1021400080602168C8612068C069296940EA01206F
:102150002168C86130E02946206801F0FFFC206852
:10216000006D40F00800216808652068006D20F0CF
:102170000400216808652068006D2969084321680A
:10218000086519E017E02946206801F01FFD206866
:10219000006D40F40060216808652068006D20F43F
:1021A0008060216808652068006D296940EA012087
:1021B0002168086500E000BF00BF00BF002084F870
:1021C0003C0000BF00BF55E710B504460CB9012024
:1021D00010BD94F83D0028B9002084F83C0020464A
:1021E00000F029F8022084F83D00211D206801F04C
:1021F000CBFA012084F8480000BF84F83E0001219A
:102200003F200155402001554120015542200155F4
:102210004320015500BF00BF012084F84400452041
:102220000155462001554720015500BF012084F883
:102230003D000020CCE7704770B504460D4615B947
:1022400094F83E0015E0042D02D13F20005D10E01F
:10225000082D02D14020005D0BE00C2D02D1412061
:10226000005D06E0102D02D14220005D01E0432018
:10227000005D012801D0012070BD1DB9022084F845
:102280003E001AE0042D03D102213F20015514E045
:10229000082D03D10221402001550EE00C2D03D161
:1022A00002214120015508E0102D03D102214220D6
:1022B000015502E0022143200155012229462068F0
:1022C00001F0C0FA2749206888420FD026492068CB
:1022D00088420BD025492068884207D024492068CD
:1022E000884203D023492068884201D1012000E0C0
:1022F000002028B12068406C40F400402168486408
:1023000018492068884213D02068B0F1804F0FD060
:102310001949206888420BD018492068884207D0A4
:1023200011492068884203D010492068884210D1A2
:1023300020688068124900EA0106062E0FD0B6F523
:10234000803F0CD02068006840F0010021680860E0
:1023500005E02068006840F0010021680860002066
:102360008AE70000002C0140003401400040014099
:1023700000440140004801400004004000080040C3
:1023800007000100014600BF91F88000012801D13B
:1023900002207047012081F8800000BF2420C1F88E
:1023A0008400086802680868006820F001000B6873
:1023B000186022F000520020486608680260202061
:1023C000C1F8840000BF002081F8800000BF00BF7A
:1023D000DFE72DE9F04104460E461746D4F88800A1
:1023E000202827D106B117B90120BDE8F08100BF30
:1023F00094F88000012801D10220F6E7012084F83A
:10240000800000BFE0663A463146204601F0DCFF1E
:1024100005466DB9E06E012809D1102021680862D7
:102420002068006840F010002168086000E0012585
:102430002846DAE70220D8E70122024B1A70024B45
:10244000197070473E0000203F000020704770B5B3
:1024500004460D4600BF94F88000012801D10220F7
:1024600070BD012084F8800000BF2420C4F88400DF
:10247000206806682068006820F001002168086074
:102480002068806820F060602843216888602046CA
:1024900001F02EFC206806602020C4F8840000BFF4
:1024A000002084F8800000BF00BFD9E770B5044663
:1024B0000D4600BF94F88000012801D1022070BDB4
:1024C000012084F8800000BF2420C4F88400206824
:1024D00006682068006820F0010021680860206814
:1024E000806820F06040284321688860204601F021
:1024F000FFFB206806602020C4F8840000BF002095
:1025000084F8800000BF00BFD9E77047704770476C
:102510002DE9F04704462068C569206806682068F0
:10252000876840F60F0005EA0009B9F1000F0FD1E6
:1025300005F0200060B106F0200010B907F08050CF
:1025400030B1206F10B12046216F8847BDE8F08779
:10255000B9F1000F7ED0AD48384018B9AC483040D2
:102560000028F7D005F0010058B106F4807040B1A2
:10257000012021680862D4F88C0040F00100C4F802
:102580008C0005F0020058B107F0010040B10220B4
:1025900021680862D4F88C0040F00400C4F88C0074
:1025A00005F0040058B107F0010040B10420216893
:1025B0000862D4F88C0040F00200C4F88C0005F0EA
:1025C000080070B106F0200010B99048384040B1C2
:1025D000082021680862D4F88C0040F00800C4F894
:1025E0008C0005F4006060B106F0806048B14FF4E3
:1025F000006021680862D4F88C0040F02000C4F824
:102600008C00D4F88C00002844D005F0200050B194
:1026100006F0200010B907F0805020B1206F10B1F3
:102620002046216F8847D4F88CA02068806800F08D
:102630004000402802D00AF0280028B3204601F0CC
:10264000BDFC2068806800F04000402818D1206858
:10265000806800E01FE020F0400021688860E06FA3
:1026600050B16C48E16F8863E06FFEF772F988B192
:10267000E06F816B88470DE02046FFF748FF09E0D7
:102680002046FFF744FF05E02046FFF740FF00200B
:10269000C4F88C005AE7E06E012879D105F01000EB
:1026A000002875D006F01000002871D01020216895
:1026B00008622068806800F0400040283DD1E06F4B
:1026C000006840681FFA80F8B8F1000F34D0B4F801
:1026D0005C00404530DDA4F85E80E06F0068006873
:1026E00000F02000F8B92068006820F480702168AC
:1026F00008602068806820F00100216888602068F8
:10270000806820F04000216888602020C4F888009C
:102710000020E0662068006820F010002168086052
:10272000E06FFEF7DBF8B4F85C00B4F85E20801AC6
:1027300081B22046FFF780FE08E734F85C0F61881D
:10274000401A1FFA80F860885C3CF8B1B8F1000FBD
:102750001CD02068006820F4907021680860206810
:1027600080682A49C9430840216888602020C4F84D
:1027700088000020E06620672068006820F01000D4
:102780002168086041462046FFF756FEDEE6FFE777
:1027900005F4801050B107F4800038B14FF4801078
:1027A000216808622046FFF7B1FECFE605F0800001
:1027B00058B106F0800010B907F4000028B1606F2E
:1027C00010B12046616F8847C0E605F0400030B187
:1027D00006F0400018B1204601F00EFCB6E605F404
:1027E000000030B106F0804018B12046FFF78DFEA2
:1027F000ACE605F0807030B106F0004018B120461C
:10280000FFF724FEA2E600BFA0E6000001000010D2
:1028100020010004B73E000810B504460CB90120A1
:1028200010BDA06900B100E000BFD4F8840028B951
:10283000002084F88000204600F02AF82420C4F804
:1028400084002068006820F00100216808602046AC
:1028500001F0F4FB012800D1E2E7A06A10B12046A4
:1028600001F072FA2068406820F4904021684860C6
:102870002068806820F02A0021688860206800684D
:1028800040F0010021680860204601F0D9FAC7E74E
:1028900010B598B00446142113A8FDF7F1FC4421AB
:1028A00002A8FDF7EDFC2E492068884255D1012091
:1028B00002900020039002A8FEF758FC08B1FDF733
:1028C000C7FF00BF2748006E40F4804025490866D6
:1028D0000846006E00F48040019000BF00BF00BFBA
:1028E0000846C06C40F00100C8640846C06C00F0A7
:1028F0000100019000BF00BF4FF4C06013900220A0
:1029000014900020159016900720179013A94FF0EF
:102910009040FEF7C5F91448144908601820486033
:10292000002112488160C160802101610021416164
:102930008161C1610162FEF7D5F808B1FDF788FF3A
:1029400000BF0A48E067846200BF002211462520CC
:10295000FEF724FB2520FEF70DFB18B010BD00008C
:1029600000380140001002400800024070010020C1
:10297000704770472DE9F84F04460E4617469946B2
:10298000D4F8840020285ED106B117B90120BDE833
:10299000F88F00BF94F88000012801D10220F6E7EB
:1029A000012084F8800000BF00205434A06321205F
:1029B0002063FEF76FFA824627806780543CA06848
:1029C000B0F5805F04D1206910B90025B04602E05F
:1029D00035464FF0000800BF002084F8800000BF9B
:1029E0001DE05346002280212046CDF8009001F0E2
:1029F0003BFD08B10320CAE745B9B8F80000C0F3B1
:102A000008002168886208F1020803E0287821683C
:102A100088626D1CB4F85600401EA4F85600B4F845
:102A200056000028DDD15346002240212046CDF833
:102A3000009001F019FD08B10320A8E72020C4F898
:102A400084000020A3E70220A1E7704700BFFEE753
:102A500010B500F0AFF84C490870084600784B49B3
:102A6000097848404849097808404949087046486B
:102A700000784649087046480078002840D044480D
:102A80000078012806D0022813D0032820D004287B
:102A900034D12CE03F48007850B93F480078401CC2
:102AA0003D49087008460078392801DD302008705B
:102AB00025E03848007850B937484078401C3649FE
:102AC000487008464078392801DD3020487016E00B
:102AD0003048007850B930488078401C2E498870C2
:102AE00008468078392801DD3020887007E02948C1
:102AF000007810B901202949087000E000BF00BF2C
:102B00002648007801283DD12348007824490978D7
:102B1000884219D12048407821494978884213D108
:102B20001D4880781E49897888420DD101201D49B1
:102B30000870FEF7AFF91C490860012015490870BC
:102B400000201A4908701AE018480078401C1749FC
:102B5000087008460078032803DBFEF79BF9144948
:102B6000086000200F4908700A49087000BF04E09F
:102B70004021094A1154411CC8B20328F8DB002047
:102B80000649087010BD00001B0000201E00002038
:102B90001D00002020000020210000201A0000203D
:102BA0002400002018000020100000201900002040
:102BB0001400002010B501210E48FEF75DF908B998
:102BC000012010BD02210B48FEF756F908B902207A
:102BD000F7E704210748FEF74FF908B90320F0E7AB
:102BE00001214FF09040FEF747F908B90420E8E7CB
:102BF0000020E6E70004004800B585B014216846CF
:102C0000FDF73EFB4FF6FF7000900020019003207F
:102C100003900020029069460248FEF741F805B093
:102C200000BD00000008004800B585B014216846CA
:102C3000FDF726FB4FF6FF70009001200190032066
:102C400003900020029069460248FEF729F805B07B
:102C500000BD00000008004830B5054600240021F2
:102C6000084600F049F900F097F900BF03E0284654
:102C700000F056F9641CB4F5963FF8D330BD00005F
:102C800000B587B0142102A8FDF7FAFA00BF2B485F
:102C9000C06C40F004002949C8640846C06C00F0CC
:102CA0000400019000BF00BF00BF0846C06C40F0A8
:102CB0000100C8640846C06C00F00100019000BF2C
:102CC00000BF00BF0846C06C40F00200C864084660
:102CD000C06C00F00200019000BF00BF4FF44870CC
:102CE000029001200390032005900020049002A987
:102CF0001348FDF7D5FF4FF4807002900120039038
:102D0000032005900020049002A94FF09040FDF7A9
:102D1000C7FFFFF789FF4FF09040806940F4807053
:102D20004FF09041886106481830006840F4087000
:102D300003491831086007B000BD000000100240D0
:102D40000004004870B505460E461446A4F1200064
:102D5000C4B204EB4400044901EB0012314628469A
:102D600000F01AF870BD000098520008F0B5074650
:102D70000C46002540F23F1609E0227831463846DD
:102D8000FFF7E0FFA6F1100086B2641C6D1C2078EE
:102D900008B1142DF1D3F0BD2DE9F0430646894664
:102DA000174600240025A046B0464946404600F09C
:102DB000A3F800BF1EE000F0EFF800250FE037F8A1
:102DC00014000121A940084020B90C48008800F0F7
:102DD000A7F803E00A48008800F0A2F86D1C102D47
:102DE000EDD308F1010000F0FF084946404600F02D
:102DF00083F8641C182CDED3BDE8F0838C0000201F
:102E00008A00002010B5FFF73BFF002000F016F805
:102E1000094908800846008848F23021884202D1DA
:102E200000F0DEFA01E000F06BFB002000F006F895
:102E30000149088010BD00008E00002070B50446D6
:102E40002748006840F4007025490860084600687B
:102E500040F48070086022481038006840F020007C
:102E60001F49103908601F4804601D48006840F081
:102E700020001B49086000BF00BF00BF1848103881
:102E8000006840F0200016491039086008460068C4
:102E900040F480700860FFF7AFFE4FF09040806A0A
:102EA00040F480704FF09041886200BF00BF00BFC7
:102EB0000C48001F006885B24FF09040806940F4D4
:102EC00080704FF090418861FFF7AEFE04481038E3
:102ED000006840F40070024910390860284670BD4F
:102EE000280400481408004801B5BDF80000014955
:102EF000088008BD8C00002030B504460D462146F0
:102F0000202000F085F82946212000F081F830BD0E
:102F100001B5BDF800000149088008BD8A00002005
:102F20001B49096841F40071194A116018491039A8
:102F3000096841F48071164A103A11601146096817
:102F400041F020011160134908601149096841F0FE
:102F500020010F4A116000BF00BF00BF0C491039AB
:102F6000096841F020010A4A103A116011460968C7
:102F700041F48071116000BF00BF00BF04491039E7
:102F8000096841F40071024A103A1160704700006C
:102F900028040048140800481B48006840F40070EA
:102FA000194908600846006840F4807008601648B7
:102FB0001038006840F020001349103908602220C2
:102FC000124908601048006840F020000E4908606F
:102FD00000BF00BF00BF0C481038006840F0200060
:102FE0000949103908600846006840F4807008609C
:102FF00000BF00BF00BF04481038006840F40070F4
:103000000149103908607047280400481408004836
:10301000214A126842F400721F4B1A601A46126865
:1030200042F480721A601C4A103A126842F0200280
:10303000194B103B1A60194A1060174A126842F087
:103040002002154B1A6000BF00BF00BF124A103AA1
:10305000126842F02002104B103B1A601A461268A8
:1030600042F480721A600D4A11600B4A126842F0F5
:103070002002094B1A6000BF00BF00BF064A103A89
:10308000126842F02002044B103B1A601A46126884
:1030900042F480721A6070472804004814080048FF
:1030A0000FB410B588B00446182102A8FDF7E8F85F
:1030B0000CA8019002A8019A0B9901F099FA00203E
:1030C000019002A92046FFF751FE08B010BC5DF840
:1030D00014FB000008B500BF1148806C40F00400EC
:1030E0000F4988640846806C00F00400009000BF1F
:1030F00000BF00BF0846806C40F0010088640846AD
:10310000806C00F00100009000BF00BF002211465B
:103110000B20FDF743FF0B20FDF72CFF08BD00003F
:103120000010024000B587B0142102A8FDF7A8F8EE
:1031300000BF3D48C06C40F004003B49C8640846ED
:10314000C06C00F00400019000BF00BF00BF084643
:10315000C06C40F02000C8640846C06C00F020003D
:10316000019000BF00BF00BF0846C06C40F00100E6
:10317000C8640846C06C00F00100019000BF00BFA9
:1031800000BF0846C06C40F00200C8640846C06C2E
:1031900000F00200019000BF00BF00BF0846C06CF5
:1031A00040F00800C8640846C06C00F008000190B8
:1031B00000BF00BF01224FF6FF711C48FDF764FEFF
:1031C000012204211A48FDF75FFE4FF6FF700290BE
:1031D0000120039000200490059002A91348FDF7F8
:1031E0005FFD01200290002003900120049002A9BD
:1031F0004FF09040FDF754FD07200290002003900F
:103200000120049002A90B48FDF74AFD042002901A
:103210000120039000200490059002A90448FDF7C6
:103220003FFD07B000BD000000100240000800484C
:10323000000C00480004004800B58FB000200B903F
:103240000C900D900E90089009900A901C2101A8F6
:10325000FDF716F84FF08040204908604F20486085
:1032600000211E48816040F2E731C1600021016108
:103270008161FEF7E5FD08B1FDF7EAFA4FF48050F1
:103280000B900BA91548FEF729FE08B1FDF7E0FAEF
:103290001248FEF799FF08B1FDF7DAFA002008900E
:1032A0000A9008A90D48FEF76FFD08B1FDF7D0FAA6
:1032B000602001904FF4FA70029000200390059076
:1032C000042201A90548FEF7CBFE08B1FDF7C0FABC
:1032D0000248FEF79BFE0FB000BD000094000020E6
:1032E00010B51E481E4908604FF416504860002172
:1032F0001B488160C16001610C2141610021816135
:10330000C161016241620020154988620846FFF7E9
:1033100083FA08B1FDF79CFA00211148FFF7C6F8BF
:1033200008B1FDF795FA00210D48FFF790F808B1B4
:10333000FDF78EFA0A48FFF725F808B1FDF788FA7D
:103340001E2208490648FFF744F80748006800684D
:1033500020F0040004490968086010BD00380140ED
:10336000E0000020D00100207001002000BFFEE737
:1033700000BFFEE77047000070B5164DED6805F020
:103380000304144DED68C5F303156B1C022C0CD01F
:10339000032C09D1104DB5FBF3F50E4EF668C6F3BC
:1033A000062605FB06F10AE000BF0C4DB5FBF3F560
:1033B000084EF668C6F3062605FB06F100BF00BFFF
:1033C000044DED68C5F341656D1C6A00B1FBF2F078
:1033D00070BD00000010024000366E010024F400B1
:1033E00000B501210020FFF713FE4FF47A70FDF7BE
:1033F00020FA00210120FFF70BFE41F2907110200E
:10340000FFF706FE4FF41C516020FFF701FE01217B
:103410006120FFF7FDFD02214620FFF7F9FD48F28C
:1034200010011320FFF7F4FD48F2FE011220FFF710
:10343000EFFD4FF4A0610220FFF7EAFD41F23001F9
:103440000320FFF7E5FD40F203313020FFF7E0FDF8
:1034500040F203313120FFF7DBFD40F2033132202F
:10346000FFF7D6FD4FF440713320FFF7D1FD032164
:103470003420FFF7CDFD40F203313520FFF7C8FDC2
:1034800014213620FFF7C4FD40F203313720FFF747
:10349000BFFD40F203313820FFF7BAFD40F203319F
:1034A0003920FFF7B5FD4FF440713A20FFF7B0FD2A
:1034B00003213B20FFF7ACFD40F203313C20FFF736
:1034C000A7FD4FF4A0513D20FFF7A2FD4FF400717E
:1034D0009220FFF79DFD40F203319320FFF798FD06
:1034E00040F60D019020FFF793FD41F218010320F3
:1034F000FFF78EFD40F273110720FFF789FD00BD35
:1035000010B543F20801E320FFF782FD1221E72006
:10351000FFF77EFD41F23121EF20FFF779FD002119
:103520000120FFF775FD4FF4E0610220FFF770FD09
:1035300041F230010320FFF76BFD00210420FFF76B
:1035400067FD40F207210820FFF762FD00210920F6
:10355000FFF75EFD00210A20FFF75AFD00210C2035
:10356000FFF756FD00210D20FFF752FD00210F202F
:10357000FFF74EFD00211020FFF74AFD0721112023
:10358000FFF746FD00211220FFF742FD0021132026
:10359000FFF73EFDC820FDF76FFB41F29061102060
:1035A000FFF736FD40F227211120FFF731FD3220D1
:1035B000FDF762FB1D211220FFF72AFD3220FDF7E7
:1035C0005BFB4FF400611320FFF722FD142129203B
:1035D000FFF71EFD0B212B20FFF71AFD3220FDF710
:1035E0004BFB00212020FFF713FD00212120FFF7D6
:1035F0000FFD07213020FFF70BFD40F2077131204E
:10360000FFF706FD06213220FFF702FD40F20471AC
:103610003520FFF7FDFC41F604713620FFF7F8FC7A
:1036200004213720FFF7F4FC00213820FFF7F0FCDD
:1036300040F206713920FFF7EBFC40F201713C20AB
:10364000FFF7E6FC0F213D20FFF7E2FC00215020B0
:10365000FFF7DEFCEF215120FFF7DAFC00215220BA
:10366000FFF7D6FC40F23F115320FFF7D1FC4FF497
:103670001C516020FFF7CCFC01216120FFF7C8FC42
:1036800000216A20FFF7C4FC00218020FFF7C0FC66
:1036900000218120FFF7BCFC00218220FFF7B8FC4D
:1036A00000218320FFF7B4FC00218420FFF7B0FC49
:1036B00000218520FFF7ACFC10219020FFF7A8FC2B
:1036C00000219220FFF7A4FC03219320FFF7A0FC28
:1036D0004FF488719520FFF79BFC00219720FFF79E
:1036E00097FC00219820FFF793FC41F2180103207A
:1036F000FFF78EFC40F273110720FFF789FC10BD25
:10370000704710B5FDF7CCFB10BD00B593B0382164
:1037100005A8FCF7B5FD14216846FCF7B1FD4FF490
:103720000070FDF78DFC012005900004069002203A
:103730000C9003210D910E9114210F9102211091F3
:103740001191129105A8FEF751F808B1FDF780F824
:103750000F2000900320019000200290039004901D
:1037600002216846FDF7BAFE08B1FDF771F813B003
:1037700000BD00000348006840F470000149086083
:103780007047000088ED00E010B50268264B9842B3
:103790000BD0B0F1804F08D0244B984205D0244B79
:1037A000984202D0234B984203D122F070024B681A
:1037B0001A431D4B984214D0B0F1804F11D01B4BCF
:1037C00098420ED01A4B98420BD01A4B984208D010
:1037D000194B984205D0194B984202D0184B984289
:1037E00003D122F44072CB681A4322F080034C6963
:1037F00043EA040202608B68C3620B6883620A4B6F
:1038000098420BD00B4B984208D00B4B984205D0F6
:103810000A4B984202D00A4B984201D10B690363CC
:103820000123436110BD0000002C01400004004052
:1038300000080040003401400040014000440140C5
:103840000048014030B501F01F05012404FA05F3DA
:10385000046A9C430462046A01F01F0502FA05F53C
:103860002C43046230BD30B50C46816821F47F41A1
:1038700042EA032525432943816030BD0A46816819
:10388000034B194042F00703194381607047000061
:103890008FFFCFFF30B5056A25F001050562026A8A
:1038A00043688469204D2C4024F003040D682C43A8
:1038B00022F002028D682A431C4DA84200D10FE07D
:1038C0001B4DA84200D10BE01A4DA84200D107E0E1
:1038D000194DA84200D103E0184DA84206D100BFFF
:1038E00022F00802CD682A4322F004020F4DA842BC
:1038F0000BD00F4DA84208D00E4DA84205D00E4D5A
:10390000A84202D00D4DA84207D123F4807323F4BE
:1039100000734D692B438D692B43436084614D686F
:103920004563026230BD00008FFFFEFF002C0140A6
:103930000034014000400140004401400048014083
:1039400030B5056A25F010050562026A436884698E
:10395000224D2C4024F440740D6844EA052422F0E2
:1039600020028D6842EA05121D4DA84200D10FE0E9
:103970001C4DA84200D10BE01B4DA84200D100BF56
:103980001A4DA84200D100BF194DA84207D106E048
:1039900022F08002CD6842EA051222F04002104D6A
:1039A000A8420BD00F4DA84208D00F4DA84205D019
:1039B0000E4DA84202D00E4DA84209D123F48063D7
:1039C00023F400634D6943EA85038D6943EA850367
:1039D000436084614D688563026230BDFF8FFFFEE6
:1039E000002C0140003401400040014000440140EF
:1039F0000048014030B5056A25F480750562026A09
:103A00004368C469224D2C4024F003040D682C4304
:103A100022F400728D6842EA05221E4DA84200D1B0
:103A20000FE01D4DA84200D10BE01C4DA84200D173
:103A300000BF1B4DA84200D100BF1A4DA84207D1BC
:103A400006E022F40062CD6842EA052222F4806298
:103A5000104DA8420BD0104DA84208D00F4DA842DF
:103A600005D00F4DA84202D00E4DA84209D123F433
:103A7000805323F400534D6943EA05138D6943EAEB
:103A800005134360C4614D68C563026230BD000028
:103A90008FFFFEFF002C0140003401400040014038
:103AA000004401400048014030B5056A25F48055C6
:103AB0000562026A4368C469224D2C4024F44074B4
:103AC0000D6844EA052422F400528D6842EA05326A
:103AD0001D4DA84200D10FE01C4DA84200D10BE0C3
:103AE0001B4DA84200D100BF1A4DA84200D100BF13
:103AF000194DA84207D106E022F40042CD6842EAFF
:103B0000053222F48042104DA8420BD00F4DA8423E
:103B100008D00F4DA84205D00E4DA84202D00E4D40
:103B2000A84209D123F4804323F400434D6943EABA
:103B300085138D6943EA85134360C4614D6805644C
:103B4000026230BDFF8FFFFE002C014000340140B7
:103B500000400140004401400048014030B5056A82
:103B600025F480350562026A4368046D114D2C40CE
:103B70000D682C4322F400320D8942EA05420E4DB5
:103B8000A8420BD00D4DA84208D00D4DA84205D03B
:103B90000C4DA84202D00C4DA84204D123F480332E
:103BA0004D6943EA0523436004654D6885640262FC
:103BB00030BD00008FFFFEFF002C014000340140AB
:103BC00000400140004401400048014030B5056A12
:103BD00025F480150562026A4368046D114D2C407E
:103BE0000D6844EA052422F400120D8942EA0552C8
:103BF0000D4DA8420BD00D4DA84208D00C4DA84247
:103C000005D00C4DA84202D00B4DA84204D123F49C
:103C100080234D6943EA8523436004654D68C5648C
:103C2000026230BDFF8FFFFE002C014000340140D6
:103C300000400140004401400048014030B50B46BF
:103C40001446026A056A25F001050562816921F0C2
:103C5000F00141EA041122F00A021A438161026272
:103C600030BD30B50B461446056A25F010050562D7
:103C70008169026A21F4704141EA043122F0A00214
:103C800042EA03128161026230BD000000EE100AB8
:103C9000B8EE400A9FED0A1AC0EE010A4FF08041CB
:103CA000C96A491C00EE101AB8EE400A20EE800ADC
:103CB000BCEEC00A10EE101A4FF0804291637047BC
:103CC0000000C84210B5094AB2FBF0F3591E1306B2
:103CD0009B6B1406E46AB3FBF4F34C1C63431406B9
:103CE000A3631306D9620123636110BD40420F0034
:103CF00070B5456E2DB90125A0F86A50A0F868503E
:103D00001CE0082308240568AD68C5F34261056816
:103D1000AD686A0F0A4DAD5C15FB04F5094EB65C43
:103D200095FBF6F5A0F86A50054D6D5C15FB03F5A3
:103D3000044E765C95FBF6F5A0F8685070BD000067
:103D4000705200087852000890F8281001F0010124
:103D500039B10168496821F40031C26A114302682F
:103D6000516090F8281001F00201022907D1016882
:103D7000496821F48031026B11430268516090F868
:103D8000281001F00401042907D10168496821F4D1
:103D90008021426B11430268516090F8281001F0B5
:103DA0000801082907D10168496821F40041826BA4
:103DB00011430268516090F8281001F01001102999
:103DC00007D10168896821F48051C26B11430268F0
:103DD000916090F8281001F02001202907D1016896
:103DE000896821F40051026C11430268916090F8D7
:103DF000281001F04001402913D10168496821F4DD
:103E00008011426C114302685160416CB1F5801F12
:103E100007D10168496821F4C001826C114302682E
:103E2000516090F8281001F08001802907D10168C5
:103E3000496821F40021C26C114302685160704747
:103E400038B504460020C4F88C00FDF723F8054679
:103E50002068006800F0080008280CD16FF07E4050
:103E60002B4600224FF400110090204600F0FCFA8F
:103E700008B1032038BD2068006800F00400042861
:103E80000CD16FF07E402B4600224FF48001009051
:103E9000204600F0E9FA08B10320EBE72020C4F83F
:103EA0008400C4F888000020E06600BF84F8800029
:103EB00000BF00BFDEE770B50546AC6A0020A4F87D
:103EC0005E00A4F856002046FEF721FB70BD2DE9E8
:103ED000F0410546AC6AD4F88460D4F88870206854
:103EE000806800F08000802807D1212E05D10020B5
:103EF000A4F85600204600F090F82068806800F092
:103F00004000402807D1222F05D10020A4F85E00F0
:103F1000204600F053F8D4F88C0040F01000C4F8AC
:103F20008C002046FEF7F3FABDE8F08170B5054637
:103F3000AC6A2868006800F0200000BB0020A4F8EC
:103F40005E002068006820F48070216808602068A6
:103F5000806820F00100216888602068806820F077
:103F60004000216888602020C4F88800E06E0128A5
:103F700005D12068006820F0100021680860E06E1C
:103F8000012805D1B4F85C102046FEF755FA02E08E
:103F90002046FEF7EDFC70BD70B50546AC6AE06EDC
:103FA000012806D1B4F85C0041082046FEF744FA27
:103FB00002E02046FEF7DDFC70BD000001680968E4
:103FC00021F490710268116001688968094A114002
:103FD00002689160C16E012905D10168096821F06C
:103FE0001001026811602021C0F888100021C1660C
:103FF00001677047FEFFFFEF10B5044620680068B8
:1040000020F04000216808602020C4F884000020CF
:1040100060672046FEF719FD10BD0168096821F0B0
:10402000C001026811600168896821F4000102681A
:1040300091602021C0F88410704700002DE9FE4FE8
:10404000044600200290D6492068884200D100E052
:1040500000BF2169A068084361690843E16940EA3B
:10406000010820680068CF49084040EA080021683C
:1040700008602068406820F44050E16808432168E7
:104080004860D4F81880C6492068884202D0206A67
:1040900040EA080820688068C349084040EA0800F0
:1040A000216888602068C06A20F00F00616A0843B8
:1040B0002168C86200BFBD492068884216D1BC484B
:1040C000006800F0030030B1012808D0022804D0B5
:1040D000032808D105E0012507E0022505E00425B5
:1040E00003E0082501E0102500BF6FE0B14920681A
:1040F000884216D1AE48006800F00C0030B10428A8
:1041000008D0082804D00C2808D105E0002507E0D5
:10411000022505E0042503E0082501E0102500BF85
:1041200054E0A5492068884216D1A148006800F0F3
:10413000300030B1102808D0202804D0302808D111
:1041400005E0002507E0022505E0042503E0082539
:1041500001E0102500BF39E098492068884216D157
:104160009348006800F0C00030B1402808D0802893
:1041700004D0C02808D105E0002507E0022505E0AD
:10418000042503E0082501E0102500BF1EE0844956
:104190002068884219D18648006800F4406048B120
:1041A000B0F5806F0AD0B0F5006F05D0B0F5406F64
:1041B00008D105E0002507E0022505E0042503E01D
:1041C000082501E0102500BF00E0102500BF74495C
:1041D000206888425DD135B1022D08D0042D08D069
:1041E000082D0DD109E0FDF791FA06460CE0744E5A
:1041F0000AE0FDF7AFFA064606E04FF4004603E09A
:1042000000260120029000BF00BF002E10D06D4993
:10421000606A31F81000B6FBF0F9606800EB40000E
:10422000484503D860680003484502D20120029047
:10423000AAE06449606A31F810C062460023304643
:104240001946FBF7E5FF4FF4807C00220B46A0FBEC
:104250000C1B03FB0CB300FB0233606840088C4668
:104260001CEB000043EB0201CDE90001D4F804C0CF
:1042700062460023FBF7CCFF0746B7F5407F05D326
:10428000B7F5801F02D22068C7607DE00120029050
:104290007AE0E069B0F5004F40D1092D17D2DFE890
:1042A00005F005090D160F1616161300FDF72EFA68
:1042B000064610E0FDF73CFA06460CE0404E0AE0E8
:1042C000FDF748FA064606E04FF4004603E00026F4
:1042D0000120029000BF00BFFEB13A49606A31F888
:1042E0001000B6FBF0F04000616800EB5100B0FB3D
:1042F000F1F087B2102F0ED3B7F5803F0BD24FF6F7
:10430000F07007EA000AC7F342004AEA000A206890
:10431000C0F80CA038E00120029035E0092D17D23A
:10432000DFE805F005090D160F1616161300FDF748
:10433000EDF9064610E0FDF7FBF906460CE0204ECD
:104340000AE0FDF707FA064606E04FF4004603E0F0
:1043500000260120029000BF00BFAEB11949606A7B
:1043600031F81000B6FBF0F0616800EB5100B0FBD3
:10437000F1F087B2102F05D3B7F5803F02D2206845
:10438000C76001E0012002900120A4F86A00A4F8AF
:1043900068000020206760670298BDE8FE8F00007B
:1043A00000800040F369FFCFFFF4FF1100380140A7
:1043B000881002400044004000480040004C00408B
:1043C0000024F4005852000870B504460E46154605
:1043D00044F8586FA5800020606322202063606A43
:1043E000583C08B31D48E16FC8621D48E16F08637F
:1043F0001C48E16F48630020E16F8863236803F184
:1044000024012B46A26DE06FFCF7D4FB60B11020B5
:10441000C4F88C0000BF002084F8800000BF20207A
:10442000C4F88400012070BD00BF002084F8800023
:1044300000BF2068006840F4807021680860206830
:10444000806840F00100216888602068806840F042
:104450004000216888600020E5E700002D3F00084B
:10446000993F0008CF3E00082DE9F04104460D4673
:1044700017469846069E4AE0701C002847D0FCF775
:1044800009FDA0EB0800B04200D8C6B9206800685A
:1044900020F4D070216808602068806820F0010056
:1044A000216888602020C4F88400C4F8880000BF18
:1044B000002084F8800000BF0320BDE8F081206860
:1044C000006800F0040010B32068C069C0F3C02089
:1044D000E8B14FF40060216808622068006820F4A9
:1044E000D070216808602068806820F00100216891
:1044F00088602020C4F88400C4F88800C4F88C00C8
:1045000000BF002084F8800000BF0320D5E72068AA
:10451000C0692840A84201D1012000E00020B84233
:10452000AAD00020C9E7000010B51648007801287D
:1045300027D11548007807281DD114480078144960
:10454000097888421AD1114840781149497888423F
:1045500014D10E4880780E49897888420ED1002007
:1045600006E00A4A011D515C094A1154411CC8B2B7
:104570000328F6DB02E007A000F02AF8002001493A
:10458000087010BD3E0000203F000020D001002038
:10459000240000206572726F7221000010B5084877
:1045A000FDF7B6FF1E2207490548FDF712FF064832
:1045B0000068006820F0040003490968086010BD25
:1045C000E0000020D00100207001002000BFFEE7C5
:1045D0000FB4054B10B503A9044A029800F008F97E
:1045E00010BC5DF814FB0000294F0008900000206B
:1045F00037B514460846064B6A46214600F0F8F8DF
:1046000004466946002000F08AFC20463EBD0000BA
:104610001F4F000802480068C0F3022070470000E6
:104620000CED00E010B5002804DB0A07130E054A64
:10463000135406E00A07140E034A00F00F031B1F71
:10464000D45410BD00E400E018ED00E002E008C81A
:10465000121F08C1002AFAD170477047002001E0FC
:1046600001C1121F002AFBD1704700002DE9FF5F36
:1046700082B00021DDE90430020DDDF840B00343D3
:1046800018D044F61050A2F2FF324243151411988C
:1046900001281FD0A5EB0B00401C5FEA000A4FF079
:1046A00000064E4FDFF83891B046504615D5CAF196
:1046B000000413E0119801244AA3012801D16FEAF4
:1046C0000B010298119AC0E90031C0E9024206B01C
:1046D000BDE8F09FCBF10000DFE704460021404A2F
:1046E000491842EB0450CDE9001012E0E00707D072
:1046F00032463B4640464946FBF7A9FE804689467E
:1047000032463B4610461946FBF7A1FE06460F46C9
:104710006410002CEAD1DDE90401DDE90023BAF1DF
:10472000000F06DAFBF793FE42464B46FBF78FFE7F
:1047300005E0FBF7FEFE42464B46FBF7FAFE044659
:104740000E460022284BFBF77BFF03D84FF0FF30CB
:10475000014607E00022254B20463146FBF7D0FDFD
:10476000FBF756FF102409E0002C0ADB0A22002385
:10477000FBF74EFD039B30321A55641E50EA0102CE
:10478000F2D1641C039AC4F111031444119A012A52
:1047900003D0012208430DD10AE0084304D00020D1
:1047A0004FF0110B119072E7A3EB0B056D1E0DE09E
:1047B0005B4504DD4FF0000205F1010504E003DA7A
:1047C0004FF00002A5F10105002AECD002981199E2
:1047D000C0E90231C0E9004579E70000000014405B
:1047E0000000F03F300000000000F0430000E03F18
:1047F0002DE9FF4F95B09B468946064600250FE2FE
:10480000252877D100242746F84A0121059400E0A5
:10481000044316F8013F203B01FA03F01042F7D1A0
:1048200030782A2811D06FF02F033078A0F13002B1
:10483000092A16D8059A44F0020402EB820203EB1F
:1048400042021044761C0590EFE759F8042B0592BC
:10485000002A03DA504244F40054059044F0020464
:10486000761C30782E2816D116F8010F44F0040477
:104870002A280DD06FF02F023078A0F13003092BD9
:1048800009D807EB870302EB4303C718761CF3E74D
:1048900059F8047B761C30786C280FD006DC4C2845
:1048A00017D068280DD06A2814D104E0742810D0DD
:1048B0007A280FD10DE044F400140AE044F4801487
:1048C00001E044F440147278824202D104F580146D
:1048D000761C761C307866280BD013DC582877D0ED
:1048E00009DC002875D04528F6D04628F4D04728A2
:1048F0001AD19DE118E0632835D0642879D0652865
:1049000012D195E1702873D008DC6728F1D06928AE
:104910006FD06E280DD06F2806D1B5E073282CD04B
:10492000752875D0782874D05A46179990476D1C11
:1049300075E1C4F30250022809D003280DD0D9F83C
:10494000001004280DD00D6009F1040967E1D9F8C1
:104950000010EA17C1E90052F6E7D9F800100D80FF
:10496000F2E70D70F0E719F8041B8DF80010002035
:104970008DF80100EA46012003E059F804AB4FF03E
:10498000FF3061074FF0000102D40DE008F1010192
:104990008846B9420FDA8045F8DB1AF8081000297A
:1049A000F4D108E008F1010188468142FADB1AF8E7
:1049B00008100029F6D105985B46A0EB08072146B0
:1049C0003846179A00F094FA284400EB080507E0EF
:1049D0004DE029E10DE01AF8010B5A46179990476E
:1049E000B8F10108F7D25B4621463846179A13E121
:1049F00042E00A220092C4F302524FF0000A022A57
:104A000008D059F804CB032A4FEAEC710AD00DE024
:104A100029E02AE009F1070121F00702F2E802C1CA
:104A2000914609E00FFA8CFC4FEAEC71042A03D19D
:104A30004FFA8CFC4FEAEC71002907DA0A46002194
:104A4000DCF1000C61EB02012D2202E0220504D50D
:104A50002B228DF80420012203E0E20701D020225E
:104A6000F7E7904659E00A2102E010220DE01021FC
:104A70004FF0000A00910BE010224FF0000A44F0C2
:104A800004040827009203E008224FF0000A009275
:104A9000C4F30252022A05D059F804CB0021032A9C
:104AA00008D009E009F1070121F00702F2E802C18C
:104AB000914605E01FFA8CFC042A01D10CF0FF0C92
:104AC0004FF00008220728D5702806D0009B83F0FD
:104AD000100353EA0A0305D00EE040228DF80420AB
:104AE000012208E05CEA010206D030228DF80420A1
:104AF0008DF8050002229046009B83F0080353EADC
:104B00000A030AD15CEA010201D1620705D530220D
:104B10008DF804204FF001087F1E582804D034A0DF
:104B200003900EA802900DE036A0F9E753466046C8
:104B3000009AFBF76DFB84460398825C0298401E46
:104B4000029002705CEA0100F0D1029806A9081AEE
:104B500000F1200A600702D524F4803400E0012728
:104B6000574502DDA7EB0A0000E0002000EB0A0138
:104B7000009005984144401A0590E00306D45B4636
:104B80002146179A059800F0B3F90544002706E07E
:104B900001A85A46C05D179990476D1C7F1C474578
:104BA000F6DBE0030CD55B462146179A059800F02A
:104BB0009FF9054404E030205A46179990476D1C30
:104BC0000099481E00900029F5DC08E0029802993F
:104BD0005A460078491C0291179990476D1CBAF10A
:104BE0000001AAF1010AF1DC65E1000009280100D9
:104BF0003031323334353637383961626364656653
:104C00000000000030313233343536373839414214
:104C1000434445460000000000F058F90544761C66
:104C2000307800287FF4ECAD19B02846BDE8F08F4D
:104C3000620700D4062709F1070222F0070CFCE8FE
:104C40000223E14603F000485FEA080C02D00FF2AD
:104C5000702C0DE05FEA045C02D50FF2682C07E0CF
:104C60005FEAC47C02D00FF2602C01E0AFF2700C5E
:104C70004FF0FF3823F00043CDF850C065280CD02A
:104C800006DC452809D046281DD047283DD13DE007
:104C9000662818D067287ED138E00021112F01DB6B
:104CA000112000E0781CCDE9000106A90EA8FFF74D
:104CB000DDFCDDE90F010E9A03910021009207F15E
:104CC000010A04914DE04FF000400097CDE901103A
:104CD00006A90EA8FFF7CAFCDDE90F0203920E9B9E
:104CE00011990022DDF80CA00093049211B9791CEF
:104CF00000EB010AB7EB0A0004D4C0F1FF3007F162
:104D0000010A0490AAEB0700019044E0012F00DAA9
:104D100001270021112F01DD112000E03846CDE9E7
:104D2000000106A90EA8FFF7A1FCDDE90F010E9A0C
:104D30000391002104910092BA4621070CD40399F3
:104D4000514500DA8A46BAF1010F05DD009AAAF151
:104D50000101515C302908D0B84202DA10F1040F89
:104D600006DA0121CDE9011015E0AAF10101E9E718
:104D7000002805DC049901440491AAEB000102E03B
:104D8000411C514500DD8A460499401A401C01909F
:104D90004FF000400290200704D40198504501DBF9
:104DA000CDF8048000208DF84F0002980DF14F07D8
:104DB000B0F1004F25D02B200E9002984FF0020842
:104DC00000280CDA404202902D200E9007E00A21C4
:104DD0000298FBF760FA3031029007F8011DB8F134
:104DE0000001A8F10108F2DC02980028EFD1791E39
:104DF0000E980870307800F0200040F0450007F869
:104E0000020D12A8C01B00F107081498007800B129
:104E1000012000EB0A01019801EBE0710598414483
:104E2000401A401E0590E00306D45B462146179ABF
:104E3000059800F05DF805441498007818B15A46BA
:104E4000179990476D1CE00324D55B462146179ABD
:104E5000059800F04DF805441CE00498002807DB95
:104E6000DDE90301884203DD0098405C179901E009
:104E7000179930205A469047049805F10105401CC7
:104E800004900198401E019004D12E205A46179993
:104E900090476D1CBAF10001AAF1010ADDDC05E0C2
:104EA00017F8010B5A46179990476D1CB8F100018D
:104EB000A8F10108F4DC5B462146179A0598ABE699
:104EC0002D0000002B000000200000002DE9F04123
:104ED000044600251E461746880404D405E03946DA
:104EE0002020B0476D1C641EF9D52846BDE8F0812E
:104EF0002DE9F041044600251E469046C80301D521
:104F0000302700E02027880404D505E041463846D4
:104F1000B0476D1C641EF9D52846BDE8F0810A68CB
:104F2000531C0B601070704713B50C464FF6FF739F
:104F3000012269460248FDF71DFD00981CBD0000D6
:104F4000E000002010B525480078002825D124482D
:104F5000007822490978884208D12148007880F0F9
:104F600001001F4908700020FDF776FE1DA11820E2
:104F7000FEF796F81E4802781EA14820FEF790F82A
:104F80001B4842781BA16020FEF78AF818488278F7
:104F900018A17820FEF784F81FE0114800780F4927
:104FA0000978884208D10E48007880F001000C4949
:104FB00008700020FDF750FE11A11820FEF770F8D0
:104FC0001248028812A14820FEF76AF825231448E7
:104FD000028814A16020FEF763F810BD20000020B5
:104FE0002C0000202020202020202050534420008E
:104FF000210000202020202042313A25632000009B
:105000002020202020202053544120002A0000206E
:1050100020202020463A2564487A202020202000A5
:105020002800002020202020443A25642563200009
:1050300002460020002105E0535C8B400343D8B2B8
:105040004B1CD9B20829F7DB1049097888421BD0DC
:105050000F490968C9B20E4B1960194609686FEA11
:10506000002319430A4B19600A49096841F00401F9
:10507000084B196007491031096841F00401054BDC
:105080001033196001490870704700003800002093
:1050900014080048180C004810B517480078032879
:1050A00021DBFBF7F7FE04461448006841F2883123
:1050B0000844844211D812480088401C10490880D6
:1050C0000846008864280DDB002008800D484078E1
:1050D00080F001000B49487004E000200849088076
:1050E0000849487004E000200549088005494870D7
:1050F0000448FFF79DFF10BD190000201400002098
:10510000360000202E000020FBF7D6FEFEF7FDFA49
:10511000FEF708F8FDF7DEFFFEF78EF8FEF7E0F881
:1051200000F056F8FDF76EFE0020FDF7DDFE4FF6AD
:10513000FF70FDF7EDFE0020FDF78EFD042108480D
:10514000FDF77AF807480088FEF7BCFD064800889E
:10515000FEF79CFD00F00AF801E000F00DF8FCE716
:10516000940000202A000020280000200620014989
:10517000087070478800002070B500241EE0FBF71F
:1051800089FE054604EB44000F4901EB80004068AE
:1051900004EB44010C4A02EB810189680844A842EF
:1051A0000AD804EB4400114601EB8000856004EB53
:1051B000440152F821008047601CC4B203480078C3
:1051C0008442DCDB70BD000040000020880000202D
:1051D0000C48006840F0FF000A4908600846006873
:1051E00080B208600848006840F004000649086082
:1051F00005481030006840F0040003491031086091
:105200007047000014080048180C004800B50E480C
:1052100000880E490988884205D10D4800880D494B
:10522000098888420FD008480088FEF74BFD0848DF
:105230000088FEF72BFD04480088044908800448D4
:1052400000880449088000BD2A0000203A000020A0
:10525000280000203C00002001000200040006009D
:1052600008000A000C00100020004000800000012F
:105270000101010307010000080402040801010103
:1052800000000000000000000102030406070809F6
:105290000000000001020304000000000000000004
:1052A00000000000000000000000000000000000FE
:1052B00000000000000000000000000000000000EE
:1052C000000000000000000000008001800180015B
:1052D00080018001800180018001800180018001C6
:1052E00080018001000000008001800100000000BA
:1052F000000000000000000000000000CC00CC0016
:10530000CC00CC00CC00CC0000000000000000006D
:10531000000000000000000000000000000000008D
:10532000000000000000000000000000000000007D
:1053300000000000600C600C600C30063006FE1FA0
:10534000FE1F300638071803FE1FFE1F1803180340
:105350008C018C018C01000000008000E003F80F3C
:105360009C0E8C1C8C188C009800F801E007800EB5
:10537000801C8C188C189C18B80CF00FE00380006F
:1053800080000000000000000000000000000E1877
:105390001B0C110C11061106110311039B018E0148
:1053A000C038C06C60446044304430441844186CC9
:1053B0000C380000000000000000E001F003380796
:1053C000180618063003F001F000F8009C310E3387
:1053D000061E061C061C063FFC73F02100000000A0
:1053E0000000000000000000000000000C000C00A5
:1053F0000C000C000C000C0000000000000000007D
:10540000000000000000000000000000000000009C
:105410000000000000000000000000020003800106
:10542000C000C0006000600030003000300030007C
:10543000300030003000300060006000C000C0006C
:105440008001000300020000000020006000C00096
:10545000800180010003000300060006000600062C
:10546000000600060006000600030003800180011C
:10547000C0006000200000000000000000000000EC
:1054800000000000C000C000D806F807E0013003AB
:1054900038070000000000000000000000000000CD
:1054A00000000000000000000000000000000000FC
:1054B0000000000080018001800180018001FC3F2C
:1054C000FC3F80018001800180018001000000001C
:1054D00000000000000000000000000000000000CC
:1054E00000000000000000000000000000000000BC
:1054F00000000000000000000000800180010001A9
:10550000000180000000000000000000000000001A
:10551000000000000000000000000000000000008B
:10552000E007E007000000000000000000000000AD
:10553000000000000000000000000000000000006B
:10554000000000000000000000000000000000005B
:1055500000000000000000000000C000C0000000CB
:1055600000000000000000000000000C000C00061D
:105570000006000600030003000380038001800191
:105580008001C000C000C00060006000000000009A
:1055900000000000000000000000E003F007380EEB
:1055A000180C0C180C180C180C180C180C180C18DB
:1055B0000C180C18180C380EF007E003000000005F
:1055C0000000000000000000000000018001C00198
:1055D000F001980188018001800180018001800133
:1055E00080018001800180018001800100000000B5
:1055F00000000000000000000000E003F80F180C9D
:105600000C180C1800180018000C0006000380018C
:10561000C000600030001800FC1FFC1F00000000EC
:1056200000000000000000000000E001F807180E74
:105630000C0C0C0C000C0006C003C007000C00187A
:1056400000180C180C18180CF807E00300000000F4
:1056500000000000000000000000000C000E000F21
:10566000000F800DC00C600C600C300C180C0C0C82
:10567000FC3FFC3F000C000C000C000C0000000084
:1056800000000000000000000000F80FF80F1800F4
:1056900018000C00EC03FC071C0E001C001800187E
:1056A00000180C181C0C180EF807E003000000008E
:1056B00000000000000000000000C007F00F381CD0
:1056C000181818000C00CC03EC0F3C0E1C1C0C1816
:1056D0000C180C18181C380EF007E003000000002E
:1056E00000000000000000000000FC1FFC1F000C78
:1056F00000060006000380038001C001C000E00036
:1057000060006000700030003000300000000000D9
:1057100000000000000000000000E003F007380E69
:10572000180C180C180C3806F007F007180C0C1899
:105730000C180C180C18380CF80FE00300000000CF
:1057400000000000000000000000E003F007380E39
:105750001C0C0C180C180C181C1C381EF81BE0191B
:105760000018000C000C1C0EF807F00100000000EF
:105770000000000000000000000000000000000029
:105780000000000080018001000000000000000017
:105790000000000000000000800180010000000007
:1057A00000000000000000000000000000000000F9
:1057B00000000000800180010000000000000000E7
:1057C00000000000000000008001800100010001D5
:1057D0008000000000000000000000000000000049
:1057E00000000000000000000010001C800FE0031B
:1057F000F8001800F800E003800F001C0010000003
:105800000000000000000000000000000000000098
:105810000000000000000000F81F00000000000071
:10582000F81F000000000000000000000000000061
:105830000000000000000000000000000000000068
:10584000000000000000000008003800F001C00760
:10585000001F0018001FC007F001380008000000FA
:1058600000000000000000000000E003F80F180C2A
:105870000C180C180018000C000600038001C00072
:10588000C000C00000000000C000C0000000000018
:10589000000000000000000000000000E0071818F1
:1058A0000420C229224A1144094409440944092216
:1058B0001113E20C024004201818E0070000000059
:1058C0000000000000000000000080038003C0060C
:1058D000C006C006600C600C301830183018F83F55
:1058E000F83F1C700C600C6006C006C00000000091
:1058F00000000000000000000000FC03FC0F0C0C86
:105900000C180C180C180C0CFC07FC0F0C180C30A5
:105910000C300C300C300C18FC1FFC070000000091
:1059200000000000000000000000C007F01F383831
:105930001C300C700660060006000600060006001B
:10594000060006600C701C30F01FE007000000002D
:1059500000000000000000000000FE03FE0F060E25
:1059600006180618063006300630063006300630B7
:10597000063006180618060EFE0FFE030000000093
:1059800000000000000000000000FC3FFC3F0C0095
:105990000C000C000C000C00FC1FFC1F0C000C0089
:1059A0000C000C000C000C00FC3FFC3F0000000051
:1059B00000000000000000000000F83FF83F180061
:1059C0001800180018001800F81FF81F1800180019
:1059D0001800180018001800180018000000000037
:1059E00000000000000000000000E00FF83F3C78DD
:1059F0000E6006E007C00300030003FE03FE03C0C1
:105A000007C006C00EC03CF0F83FE00F00000000E9
:105A1000000000000000000000000C300C300C30D2
:105A20000C300C300C300C30FC3FFC3F0C300C3098
:105A30000C300C300C300C300C300C3000000000FE
:105A400000000000000000000000800180018001D3
:105A5000800180018001800180018001800180013E
:105A60008001800180018001800180010000000030
:105A70000000000000000000000000060006000614
:105A800000060006000600060006000600060006E6
:105A90000006180618063807F003E00100000000B1
:105AA0000000000000000000000006300618060C90
:105AB000060606038601C60066007600DE008E013B
:105AC00006030606060C06180630066000000000F5
:105AD000000000000000000000001800180018007E
:105AE00018001800180018001800180018001800F6
:105AF0001800180018001800F81FF81F0000000018
:105B0000000000000000000000000EE01EF01EF08B
:105B10001EF036D836D836D836D866CC66CC66CCA9
:105B2000C6C6C6C6C6C6C6C686C386C300000000B3
:105B3000000000000000000000000C301C303C3071
:105B40003C306C306C30CC30CC308C310C330C337E
:105B50000C360C360C3C0C3C0C380C3000000000B1
:105B600000000000000000000000E007F81F1C38E3
:105B70000E70066003C003C003C003C003C003C0AF
:105B800003C006600E701C38F81FE007000000001C
:105B900000000000000000000000FC0FFC1F0C389B
:105BA0000C300C300C300C300C18FC1FFC070C00B7
:105BB0000C000C000C000C000C000C00000000009D
:105BC00000000000000000000000E007F81F1C3883
:105BD0000E70066003E003C003C003C003C003C02F
:105BE00007E006630E3F1C3CF83FE0F700C00000F2
:105BF00000000000000000000000FE0FFE1F06383D
:105C00000630063006300638FE1FFE07060306067D
:105C1000060C061806180630063006600000000064
:105C200000000000000000000000E003F80F1C0C62
:105C30000C180C180C001C00F803E00F001E0038B4
:105C4000063006300E301C1CF80FE0070000000084
:105C500000000000000000000000FE7FFE7F8001C9
:105C6000800180018001800180018001800180012C
:105C7000800180018001800180018001000000001E
:105C8000000000000000000000000C300C300C3060
:105C90000C300C300C300C300C300C300C300C3024
:105CA0000C300C300C301818F81FE0070000000012
:105CB0000000000000000000000003600630063015
:105CC00006300C180C180C18180C180C380E30066E
:105CD0003006700760036003C001C00100000000CF
:105CE000000000000000000000000360C361C36109
:105CF000C3616633663366336633663366336C1B63
:105D00006C1B6C1B2C1A3C1E380E380E0000000059
:105D1000000000000000000000000FE00C701830D0
:105D20003018700C600EC00780038003C003E006CB
:105D3000700C301C18180C300E6007E000000000DA
:105D40000000000000000000000003C006600C30EE
:105D50001C383818300C6006E007C0038001800151
:105D6000800180018001800180018001000000002D
:105D700000000000000000000000FC7FFC7F0060CD
:105D800000300018000C000600038001C000600015
:105D9000300018000C000600FE7FFE7F00000000AF
:105DA00000000000000000000000E003E0036000CD
:105DB00060006000600060006000600060006000E3
:105DC00060006000600060006000600060006000D3
:105DD0006000E003E00300000000300030006000DD
:105DE00060006000C000C000C000C00180018001F0
:105DF000800100030003000300060006000000000D
:105E000000000000000000000000E003E0030003C9
:105E1000000300030003000300030003000300036A
:105E2000000300030003000300030003000300035A
:105E30000003E003E003000000000000C001C00117
:105E400060036003600330063006180C180C000075
:105E50000000000000000000000000000000000042
:105E60000000000000000000000000000000000032
:105E70000000000000000000000000000000000022
:105E800000000000000000000000FFFFFFFF000016
:105E9000000000000000000000000C000C000C00DE
:105EA0000C000C000C0000000000000000000000CE
:105EB00000000000000000000000000000000000E2
:105EC00000000000000000000000000000000000D2
:105ED00000000000F003F8071C0C0C0C000FF00F82
:105EE000F80C0C0C0C0C1C0FF80FF0180000000044
:105EF000000000000000000000001800180018005A
:105F000018001800D803F80F380C181818181818AB
:105F1000181818181818380CF80FD80300000000CB
:105F20000000000000000000000000000000000071
:105F300000000000C003F007300E180C1800180015
:105F400018001800180C300EF007C0030000000005
:105F500000000000000000000000001800180018F9
:105F600000180018C01BF01F301C1818181818183B
:105F7000181818181818301CF01FC01B000000005B
:105F80000000000000000000000000000000000011
:105F900000000000C003F00F300C1818F81FF81FA5
:105FA000180018003818301CF00FC007000000005F
:105FB00000000000000000000000800FC00FC000C3
:105FC000C000C000F007F007C000C000C000C00063
:105FD000C000C000C000C000C000C0000000000041
:105FE00000000000000000000000000000000000B1
:105FF00000000000E00DF80F180E0C0C0C0C0C0C3F
:106000000C0C0C0C0C0C180EF80FE00D000C0C0C0A
:106010001C06F807F0010000000018001800180026
:1060200018001800D807F80F381C18181818181876
:106030001818181818181818181818180000000040
:1060400000000000000000000000C000C0000000D0
:1060500000000000C000C000C000C000C000C000C0
:10606000C000C000C000C000C000C00000000000B0
:1060700000000000000000000000C000C0000000A0
:1060800000000000C000C000C000C000C000C00090
:10609000C000C000C000C000C000C000C000C00000
:1060A000C000F8007800000000000C000C000C009C
:1060B0000C000C000C0C0C060C038C01CC006C00CA
:1060C000FC009C018C030C030C060C0C000000006F
:1060D00000000000000000000000C000C000C00080
:1060E000C000C000C000C000C000C000C000C000B0
:1060F000C000C000C000C000C000C0000000000020
:10610000000000000000000000000000000000008F
:10611000000000007C3CFF7EC7E383C183C183C1D4
:1061200083C183C183C183C183C183C100000000D7
:10613000000000000000000000000000000000005F
:10614000000000009807F80F381C181818181818C5
:10615000181818181818181818181818000000001F
:10616000000000000000000000000000000000002F
:1061700000000000C003F00F300C18181818181891
:10618000181818181818300CF00FC0030000000081
:1061900000000000000000000000000000000000FF
:1061A00000000000D803F80F380C18181818181839
:1061B000181818181818380CF80FD80318001800F9
:1061C0001800180018000000000000000000000087
:1061D00000000000C01BF01F301C181818181818F9
:1061E000181818181818301CF01FC01B00180018B9
:1061F0000018001800180000000000000000000057
:1062000000000000B007F0037000300030003000E4
:10621000300030003000300030003000000000005E
:10622000000000000000000000000000000000006E
:1062300000000000E003F003380E180C3800F003F3
:10624000C007000C180C380EF007E0030000000037
:106250000000000000000000000000008000C000FE
:10626000C000C000F007F007C000C000C000C000C0
:10627000C000C000C000C000C007800700000000D0
:10628000000000000000000000000000000000000E
:1062900000000000181818181818181818181818DE
:1062A000181818181818381CF01FE0190000000002
:1062B00000000000000000000000000000000000DE
:1062C000000000000C18180C180C180C30063006D2
:1062D0003006600360036003C001C00100000000DD
:1062E00000000000000000000000000000000000AE
:1062F00000000000C141C141C36163636363636324
:106300003636363636361C1C1C1C1C1C00000000A1
:10631000000000000000000000000000000000007D
:10632000000000001C38381C300C6006600360035D
:10633000600360036006300C381C1C38000000004D
:10634000000000000000000000000000000000004D
:10635000000000001830301830187018600C600C05
:10636000E00CC006C006800380038003800180012A
:10637000C001F000700000000000000000000000FC
:1063800000000000FC1FFC1F000C00060003800141
:10639000C000600030001800FC1FFC1F000000005F
:1063A0000000000000000000000000038001C000A9
:1063B000C000C000C000C000C0006000600030002D
:1063C00060004000C000C000C000C000C000C000AD
:1063D00080010003000000000000800180018001B6
:1063E00080018001800180018001800180018001A5
:1063F0008001800180018001800180018001800195
:10640000800180018001000000006000C000C00128
:1064100080018001800180018001000300030006EB
:106420000003000180018001800180018001800162
:10643000C00060000000000000000000000000003C
:106440000000000000000000F010F81F080F00001E
:10645000000000000000000000000000000000003C
:106460000000000000000000886400080000002018
:10647000940000004C4600081C65000894000020B1
:106480005C0500005C4600080000000010000000F1
:10649000010000000024F4000000000000000000E3
:1064A0000000000000000000004040403132330096
:1064B0003200E803000000000000000000000000BF
:1064C000FF000000000000009950000801000000DB
:1064D00000000000512A00080A000000000000002F
:1064E000454F000864000000000000002945000836
:1064F00032000000000000000D5200080A000000F9
:106500000000000059080008010000000000000021
:0C65100000000000FFFF00000000000081
:04000005080001D915
:00000001FF
